{
  "contractName": "AddressLibMock",
  "abi": [
    {
      "constant": true,
      "inputs": [
        {
          "name": "_code",
          "type": "address"
        }
      ],
      "name": "addressToString",
      "outputs": [
        {
          "name": "",
          "type": "string"
        }
      ],
      "payable": false,
      "stateMutability": "pure",
      "type": "function"
    }
  ],
  "bytecode": "0x608060405234801561001057600080fd5b506102a9806100206000396000f3fe608060405234801561001057600080fd5b506004361061002b5760003560e01c80635e57966d14610030575b600080fd5b6100566004803603602081101561004657600080fd5b50356001600160a01b03166100cb565b6040805160208082528351818301528351919283929083019185019080838360005b83811015610090578181015183820152602001610078565b50505050905090810190601f1680156100bd5780820380516001836020036101000a031916815260200191505b509250505060405180910390f35b60606100df826001600160a01b03166100e5565b92915050565b604080518082018252601081527f303132333435363738396162636465660000000000000000000000000000000060208201528151602a80825260608281019094526001600160a01b03851692918491602082018180388339019050509050600160fc1b6003028160008151811061015957fe5b60200101906001600160f81b031916908160001a905350600160fb1b600f028160018151811061018557fe5b60200101906001600160f81b031916908160001a90535060005b6014811015610274578260048583600c01602081106101ba57fe5b1a60f81b6001600160f81b031916901c60f81c60ff16815181106101da57fe5b602001015160f81c60f81b8282600202600201815181106101f757fe5b60200101906001600160f81b031916908160001a905350828482600c016020811061021e57fe5b1a60f81b600f60f81b1660f81c60ff168151811061023857fe5b602001015160f81c60f81b82826002026003018151811061025557fe5b60200101906001600160f81b031916908160001a90535060010161019f565b5094935050505056fea165627a7a72305820a76fdee47b7730fdb1cb70ce24fee18eb5b2a2edb8b888d75fdbf50e7e9ebc030029",
  "source": "pragma solidity 0.5;\n\nimport \"../AddressLib.sol\";\n\n/**\n * @title AddressLibMock\n * @author Igor Dulger\n * @dev Mock contract to test Address library. All docs are into origin library.\n */\ncontract AddressLibMock {\n\n    using AddressLib for address;\n    using AddressLib for address payable;\n\n    function addressToString(address _code) external pure returns(string memory) {\n        return _code.addressToString();\n    }\n}\n",
  "sourcePath": "/work/room2read/contracts/libs/mocks/AddressMock.sol",
  "compiler": {
    "name": "solc",
    "version": "0.5.7+commit.6da8b019.Emscripten.clang"
  },
  "schemaVersion": "3.0.6",
  "updatedAt": "2019-04-24T11:41:08.826Z",
  "devdoc": {
    "author": "Igor Dulger",
    "details": "Mock contract to test Address library. All docs are into origin library.",
    "methods": {},
    "title": "AddressLibMock"
  },
  "userdoc": {
    "methods": {}
  }
}