{
  "contractName": "AddressEnumerationLibMock",
  "abi": [
    {
      "anonymous": false,
      "inputs": [
        {
          "indexed": false,
          "name": "text",
          "type": "string"
        },
        {
          "indexed": false,
          "name": "id",
          "type": "uint256"
        }
      ],
      "name": "Debug",
      "type": "event"
    },
    {
      "constant": false,
      "inputs": [
        {
          "name": "_id",
          "type": "address"
        }
      ],
      "name": "add",
      "outputs": [],
      "payable": false,
      "stateMutability": "nonpayable",
      "type": "function"
    },
    {
      "constant": false,
      "inputs": [
        {
          "name": "_id",
          "type": "address"
        }
      ],
      "name": "remove",
      "outputs": [],
      "payable": false,
      "stateMutability": "nonpayable",
      "type": "function"
    },
    {
      "constant": true,
      "inputs": [
        {
          "name": "_id",
          "type": "address"
        }
      ],
      "name": "getNextId",
      "outputs": [
        {
          "name": "",
          "type": "address"
        }
      ],
      "payable": false,
      "stateMutability": "view",
      "type": "function"
    },
    {
      "constant": true,
      "inputs": [],
      "name": "itemsCount",
      "outputs": [
        {
          "name": "",
          "type": "uint256"
        }
      ],
      "payable": false,
      "stateMutability": "view",
      "type": "function"
    },
    {
      "constant": true,
      "inputs": [
        {
          "name": "_id",
          "type": "address"
        }
      ],
      "name": "exists",
      "outputs": [
        {
          "name": "",
          "type": "bool"
        }
      ],
      "payable": false,
      "stateMutability": "view",
      "type": "function"
    },
    {
      "constant": true,
      "inputs": [
        {
          "name": "_ids",
          "type": "address[]"
        }
      ],
      "name": "statuses",
      "outputs": [
        {
          "name": "",
          "type": "bool[]"
        }
      ],
      "payable": false,
      "stateMutability": "view",
      "type": "function"
    }
  ],
  "bytecode": "0x608060405234801561001057600080fd5b506108bd806100206000396000f3fe608060405234801561001057600080fd5b50600436106100625760003560e01c80630a3b0a4f1461006757806329092d0e1461008f5780635ef73440146100b5578063aec1b18f14610175578063e2c03ace146101b7578063f6a3d24e146101d1575b600080fd5b61008d6004803603602081101561007d57600080fd5b50356001600160a01b031661020b565b005b61008d600480360360208110156100a557600080fd5b50356001600160a01b031661021f565b610125600480360360208110156100cb57600080fd5b8101906020810181356401000000008111156100e657600080fd5b8201836020820111156100f857600080fd5b8035906020019184602083028401116401000000008311171561011a57600080fd5b509092509050610230565b60408051602080825283518183015283519192839290830191858101910280838360005b83811015610161578181015183820152602001610149565b505050509050019250505060405180910390f35b61019b6004803603602081101561018b57600080fd5b50356001600160a01b031661027e565b604080516001600160a01b039092168252519081900360200190f35b6101bf610290565b60408051918252519081900360200190f35b6101f7600480360360208110156101e757600080fd5b50356001600160a01b03166102a2565b604080519115158252519081900360200190f35b61021c60008263ffffffff6102b416565b50565b61021c60008263ffffffff6103b716565b606061027583838080602002602001604051908101604052809392919081815260200183836020028082843760009201829052509392505063ffffffff61056f169050565b90505b92915050565b6000610278818363ffffffff61063916565b600061029c6000610769565b90505b90565b6000610278818363ffffffff61077016565b806001600160a01b0381166103135760408051600160e51b62461bcd02815260206004820152601460248201527f5a65726f20696420697320666f7262696464656e000000000000000000000000604482015290519081900360640190fd5b828261031f8282610770565b15801561033457506001600160a01b03811615155b61037257604051600160e51b62461bcd0281526004018080602001828103825260218152602001806108716021913960400191505060405180910390fd5b505050600180830180546001600160a01b03909316600081815260209586526040812085905592840182559082529290200180546001600160a01b0319169091179055565b806001600160a01b0381166104165760408051600160e51b62461bcd02815260206004820152601460248201527f5a65726f20696420697320666f7262696464656e000000000000000000000000604482015290519081900360640190fd5b82826104228282610770565b8061043457506001600160a01b038116155b6104885760408051600160e51b62461bcd02815260206004820152601d60248201527f746869732069642073686f756c642065786973747320696e206c697374000000604482015290519081900360640190fd5b60018501546001600160a01b0385166000908152602087905260409020546000199091019080821461052a5760008760010183815481106104c557fe5b6000918252602090912001546001890180546001600160a01b0390921692508291849081106104f057fe5b600091825260208083209190910180546001600160a01b0319166001600160a01b0394851617905592909116815290889052604090208190555b6001600160a01b0386166000908152602088905260408120556001808801546105589163ffffffff6107e016565b6105656001890182610807565b5050505050505050565b606060328251106105b457604051600160e51b62461bcd02815260040180806020018281038252602281526020018061084f6022913960400191505060405180910390fd5b606082516040519080825280602002602001820160405280156105e1578160200160208202803883390190505b50905060005b83518110156106315761060d8585838151811061060057fe5b6020026020010151610770565b82828151811061061957fe5b911515602092830291909101909101526001016105e7565b509392505050565b600082826106478282610770565b8061065957506001600160a01b038116155b6106ad5760408051600160e51b62461bcd02815260206004820152601d60248201527f746869732069642073686f756c642065786973747320696e206c697374000000604482015290519081900360640190fd5b6001600160a01b03841660009081526020869052604090205460018601546106dc82600263ffffffff6107f516565b11156106ec576000935050610761565b6001600160a01b0385161561073757856001016107136001836107f590919063ffffffff16565b8154811061071d57fe5b6000918252602090912001546001600160a01b031661075d565b8560010160008154811061074757fe5b6000918252602090912001546001600160a01b03165b9350505b505092915050565b6001015490565b6001820154600090156107d8576001600160a01b03821660008181526020859052604090205460018501805490919081106107a757fe5b6000918252602090912001546001600160a01b03161480156107d157506001600160a01b03821615155b9050610278565b506000610278565b6000828211156107ef57600080fd5b50900390565b60008282018381101561027557600080fd5b81548183558181111561082b5760008381526020902061082b918101908301610830565b505050565b61029f91905b8082111561084a5760008155600101610836565b509056fe5374617475732061727261792063616e2774206265206d6f7265207468616e203530746869732069642073686f756c64204e4f542065786973747320696e206c697374a165627a7a72305820879ff1bca096558014292963de1b6066283a169bd442c52c0c4270977932c2fe0029",
  "source": "pragma solidity 0.5;\n\nimport \"../AddressEnumerationLib.sol\";\n\n/**\n * @title ListMock\n * @author Ihor Borysyuk Igor Dulger\n * @dev Mock contract to test List library. All docs are into origin library.\n */\ncontract AddressEnumerationLibMock {\n\n    using AddressEnumerationLib for AddressEnumerationLib.ListData;\n\n    AddressEnumerationLib.ListData private list;\n\n    event Debug(string text, uint id);\n\n    function add(address _id) external {\n        list.add(_id);\n    }\n\n    function remove(address _id) external {\n        list.remove(_id);\n    }\n\n    function getNextId(address _id) external\n        view\n        returns (address) {\n        return list.getNextId(_id);\n    }\n\n    function itemsCount() external view returns (uint) {\n        return list.itemsCount();\n    }\n\n    function exists(address _id) external view returns (bool) {\n        return list.exists(_id);\n    }\n\n    function statuses(address[] calldata _ids) external view returns (bool[] memory) {\n        return list.statuses(_ids);\n    }\n}\n",
  "sourcePath": "/work/room2read/contracts/libs/mocks/AddressEnumerationMock.sol",
  "compiler": {
    "name": "solc",
    "version": "0.5.7+commit.6da8b019.Emscripten.clang"
  },
  "schemaVersion": "3.0.6",
  "updatedAt": "2019-04-24T11:41:08.831Z",
  "devdoc": {
    "author": "Ihor Borysyuk Igor Dulger",
    "details": "Mock contract to test List library. All docs are into origin library.",
    "methods": {},
    "title": "ListMock"
  },
  "userdoc": {
    "methods": {}
  }
}