{
  "contractName": "AddressIndexLibMock",
  "abi": [
    {
      "constant": false,
      "inputs": [
        {
          "name": "_index",
          "type": "address"
        },
        {
          "name": "_id",
          "type": "uint256"
        }
      ],
      "name": "add",
      "outputs": [],
      "payable": false,
      "stateMutability": "nonpayable",
      "type": "function"
    },
    {
      "constant": false,
      "inputs": [
        {
          "name": "_index",
          "type": "address"
        },
        {
          "name": "_id",
          "type": "uint256"
        }
      ],
      "name": "update",
      "outputs": [],
      "payable": false,
      "stateMutability": "nonpayable",
      "type": "function"
    },
    {
      "constant": false,
      "inputs": [
        {
          "name": "_index",
          "type": "address"
        }
      ],
      "name": "remove",
      "outputs": [],
      "payable": false,
      "stateMutability": "nonpayable",
      "type": "function"
    },
    {
      "constant": true,
      "inputs": [
        {
          "name": "_index",
          "type": "address"
        }
      ],
      "name": "getId",
      "outputs": [
        {
          "name": "",
          "type": "uint256"
        }
      ],
      "payable": false,
      "stateMutability": "view",
      "type": "function"
    },
    {
      "constant": true,
      "inputs": [
        {
          "name": "_id",
          "type": "uint256"
        }
      ],
      "name": "getIndex",
      "outputs": [
        {
          "name": "",
          "type": "address"
        }
      ],
      "payable": false,
      "stateMutability": "view",
      "type": "function"
    }
  ],
  "bytecode": "0x608060405234801561001057600080fd5b506105fe806100206000396000f3fe608060405234801561001057600080fd5b50600436106100575760003560e01c806329092d0e1461005c57806365f68c89146100845780638e7cb6e1146100bc578063a2d83b5e146100f5578063f5d82b6b14610121575b600080fd5b6100826004803603602081101561007257600080fd5b50356001600160a01b031661014d565b005b6100aa6004803603602081101561009a57600080fd5b50356001600160a01b0316610161565b60408051918252519081900360200190f35b6100d9600480360360208110156100d257600080fd5b5035610179565b604080516001600160a01b039092168252519081900360200190f35b6100826004803603604081101561010b57600080fd5b506001600160a01b03813516906020013561018b565b6100826004803603604081101561013757600080fd5b506001600160a01b0381351690602001356101a1565b61015e60008263ffffffff6101b316565b50565b6000610173818363ffffffff61025016565b92915050565b6000610173818363ffffffff61026c16565b61019d6000838363ffffffff61028b16565b5050565b61019d6000838363ffffffff61040316565b60006101bf8383610250565b9050806102165760408051600160e51b62461bcd02815260206004820152601160248201527f496e646578206d75737420657869737473000000000000000000000000000000604482015290519081900360640190fd5b6001600160a01b039091166000908152602083815260408083208390559282526001909301909252902080546001600160a01b0319169055565b6001600160a01b03166000908152602091909152604090205490565b600090815260019190910160205260409020546001600160a01b031690565b816001600160a01b0381166102ea5760408051600160e51b62461bcd02815260206004820152601460248201527f696e6465782063616e277420626520656d707479000000000000000000000000604482015290519081900360640190fd5b83836102f68282610250565b1561034b5760408051600160e51b62461bcd02815260206004820152601a60248201527f5468697320696e64657820697320616c72656164792075736564000000000000604482015290519081900360640190fd5b6000610357878661026c565b90506001600160a01b0381166103b75760408051600160e51b62461bcd02815260206004820152600e60248201527f4964206d75737420657869737473000000000000000000000000000000000000604482015290519081900360640190fd5b6001600160a01b039081166000908152602088815260408083208390559790921680825287822087905595815260019097019052505050912080546001600160a01b0319169091179055565b816001600160a01b0381166104625760408051600160e51b62461bcd02815260206004820152601460248201527f696e6465782063616e277420626520656d707479000000000000000000000000604482015290519081900360640190fd5b81806104b85760408051600160e51b62461bcd02815260206004820152601160248201527f69642063616e277420626520656d707479000000000000000000000000000000604482015290519081900360640190fd5b84846104c48282610250565b156105195760408051600160e51b62461bcd02815260206004820152601a60248201527f5468697320696e64657820697320616c72656164792075736564000000000000604482015290519081900360640190fd5b6000858152600188016020526040902054879086906001600160a01b03161561058c5760408051600160e51b62461bcd02815260206004820152601760248201527f5468697320696420697320616c72656164792075736564000000000000000000604482015290519081900360640190fd5b5050506001600160a01b0390941660008181526020878152604080832087905595825260019097019096529290942080546001600160a01b03191690921790915550505056fea165627a7a723058204b600807309522f470f9a43498445ccf789162cadfc3c06dde80011060a9dc430029",
  "source": "pragma solidity 0.5;\n\nimport \"../AddressIndexLib.sol\";\n\n/**\n * @title AddressIndexLibMock\n * @author Igor Dulger\n * @dev Mock contract to test address index library. All docs are into origin library.\n */\ncontract AddressIndexLibMock {\n\n    using AddressIndexLib for AddressIndexLib.Indexes;\n\n    AddressIndexLib.Indexes private indexes;\n\n    function add(address _index, uint _id) external {\n        indexes.add(_index, _id);\n    }\n\n    function update(address _index, uint _id) external {\n        indexes.update(_index, _id);\n    }\n\n    function remove(address _index) external {\n        indexes.remove(_index);\n    }\n\n    function getId(address _index) external view returns (uint) {\n        return indexes.getId(_index);\n    }\n\n    function getIndex(uint _id) external view returns (address) {\n        return indexes.getIndex(_id);\n    }\n}\n",
  "sourcePath": "/work/room2read/contracts/libs/mocks/AddressIndexMock.sol",
  "compiler": {
    "name": "solc",
    "version": "0.5.7+commit.6da8b019.Emscripten.clang"
  },
  "schemaVersion": "3.0.6",
  "updatedAt": "2019-04-24T11:41:08.829Z",
  "devdoc": {
    "author": "Igor Dulger",
    "details": "Mock contract to test address index library. All docs are into origin library.",
    "methods": {},
    "title": "AddressIndexLibMock"
  },
  "userdoc": {
    "methods": {}
  }
}