{
  "contractName": "EntityLibMock",
  "abi": [
    {
      "constant": false,
      "inputs": [
        {
          "name": "_data",
          "type": "string"
        }
      ],
      "name": "add",
      "outputs": [],
      "payable": false,
      "stateMutability": "nonpayable",
      "type": "function"
    },
    {
      "constant": false,
      "inputs": [
        {
          "name": "_id",
          "type": "uint256"
        },
        {
          "name": "_data",
          "type": "string"
        }
      ],
      "name": "update",
      "outputs": [],
      "payable": false,
      "stateMutability": "nonpayable",
      "type": "function"
    },
    {
      "constant": false,
      "inputs": [
        {
          "name": "_id",
          "type": "uint256"
        }
      ],
      "name": "remove",
      "outputs": [],
      "payable": false,
      "stateMutability": "nonpayable",
      "type": "function"
    },
    {
      "constant": true,
      "inputs": [
        {
          "name": "_id",
          "type": "uint256"
        }
      ],
      "name": "get",
      "outputs": [
        {
          "name": "",
          "type": "uint256"
        },
        {
          "name": "",
          "type": "string"
        },
        {
          "name": "",
          "type": "uint256"
        }
      ],
      "payable": false,
      "stateMutability": "view",
      "type": "function"
    },
    {
      "constant": true,
      "inputs": [],
      "name": "itemsCount",
      "outputs": [
        {
          "name": "",
          "type": "uint256"
        }
      ],
      "payable": false,
      "stateMutability": "view",
      "type": "function"
    },
    {
      "constant": true,
      "inputs": [
        {
          "name": "_id",
          "type": "uint256"
        }
      ],
      "name": "exists",
      "outputs": [
        {
          "name": "",
          "type": "bool"
        }
      ],
      "payable": false,
      "stateMutability": "view",
      "type": "function"
    }
  ],
  "bytecode": "0x608060405234801561001057600080fd5b50610cee806100206000396000f3fe608060405234801561001057600080fd5b50600436106100625760003560e01c80634cc82215146100675780634f558e79146100865780639507d39a146100b7578063b0c8f9dc1461015a578063e2c03ace146101ca578063f745630f146101e4575b600080fd5b6100846004803603602081101561007d57600080fd5b503561025b565b005b6100a36004803603602081101561009c57600080fd5b5035610270565b604080519115158252519081900360200190f35b6100d4600480360360208110156100cd57600080fd5b5035610289565b6040518084815260200180602001838152602001828103825284818151815260200191508051906020019080838360005b8381101561011d578181015183820152602001610105565b50505050905090810190601f16801561014a5780820380516001836020036101000a031916815260200191505b5094505050505060405180910390f35b6100846004803603602081101561017057600080fd5b81019060208101813564010000000081111561018b57600080fd5b82018360208201111561019d57600080fd5b803590602001918460018302840111640100000000831117156101bf57600080fd5b5090925090506102ab565b6101d26102f6565b60408051918252519081900360200190f35b610084600480360360408110156101fa57600080fd5b8135919081019060408101602082013564010000000081111561021c57600080fd5b82018360208201111561022e57600080fd5b8035906020019184600183028401116401000000008311171561025057600080fd5b509092509050610308565b61026c60008263ffffffff61035616565b5050565b600061028360028363ffffffff61040a16565b92915050565b600060608161029e818563ffffffff61043a16565b9250925092509193909250565b6102f182828080601f01602080910402602001604051908101604052809392919081815260200183838082843760009201829052509392505063ffffffff610561169050565b505050565b600061030260026105ea565b90505b90565b6103508383838080601f0160208091040260200160405190810160405280939291908181526020018383808284376000920182905250949392505063ffffffff6105f1169050565b50505050565b6000828280158015906103785750600081815260018301602052604090205481145b6103c25760408051600160e51b62461bcd0281526020600482015260106024820152600160821b6f1a5908191bd95cdb89dd08195e1a5cdd02604482015290519081900360640190fd5b600084815260018087016020526040822082815591906103e490830182610bc2565b5060006002918201556103ff9086018563ffffffff6106cb16565b506001949350505050565b600081838261041883610854565b81526020019081526020016000205414801561043357508115155b9392505050565b60006060818484801580159061045f5750600081815260018301602052604090205481145b6104a95760408051600160e51b62461bcd0281526020600482015260106024820152600160821b6f1a5908191bd95cdb89dd08195e1a5cdd02604482015290519081900360640190fd5b6000868152600188810160209081526040928390208054600280830154928501805487519681161561010002600019011691909104601f810185900485028601850190965285855290949093919284919083018282801561054b5780601f106105205761010080835404028352916020019161054b565b820191906000526020600020905b81548152906001019060200180831161052e57829003601f168201915b5050505050915094509450945050509250925092565b815460009061057790600163ffffffff61088f16565b8084556040805160608101825282815260208082018681526001838501819052600095865280890183529390942082518155935180519294936105c293908501929190910190610c09565b506040919091015160029182015583546105e49185019063ffffffff6108a116565b50505490565b6001015490565b6000838380158015906106135750600081815260018301602052604090205481145b61065d5760408051600160e51b62461bcd0281526020600482015260106024820152600160821b6f1a5908191bd95cdb89dd08195e1a5cdd02604482015290519081900360640190fd5b6000858152600180880160209081526040909220865161068593919092019190870190610c09565b50600085815260018781016020526040909120600201546106ab9163ffffffff61088f16565b600086815260018801602052604090206002015584925050509392505050565b806000811161071d5760408051600160e51b62461bcd0281526020600482015260136024820152600160691b722d32b9379034b21034b9903337b93134b232b702604482015290519081900360640190fd5b8282610729828261040a565b80610732575080155b6107865760408051600160e51b62461bcd02815260206004820152601d60248201527f746869732069642073686f756c642065786973747320696e206c697374000000604482015290519081900360640190fd5b60006107918561095c565b9050600061079e86610997565b905060006107ab87610854565b600084815260208a905260408082205485835290822054929350919081908b906107d485610997565b815260200190815260200160002081905550818a60000160006107f68461095c565b81526020808201929092526040908101600090812093909355878352908c90528082208290558582528082208290558482528120556001808b01546108409163ffffffff6109d216565b8a6001018190555050505050505050505050565b60408051600160e11b6331bab93902602080830191909152602480830194909452825180830390940184526044909101909152815191012090565b60008282018381101561043357600080fd5b80600081116108f35760408051600160e51b62461bcd0281526020600482015260136024820152600160691b722d32b9379034b21034b9903337b93134b232b702604482015290519081900360640190fd5b82826108ff828261040a565b15801561090b57508015155b61094957604051600160e51b62461bcd028152600401808060200182810382526021815260200180610ca26021913960400191505060405180910390fd5b610955858560006109e7565b5050505050565b60408051600160e11b63383932bb02602080830191909152602480830194909452825180830390940184526044909101909152815191012090565b60408051600160e21b631b995e1d02602080830191909152602480830194909452825180830390940184526044909101909152815191012090565b6000828211156109e157600080fd5b50900390565b8160008111610a395760408051600160e51b62461bcd0281526020600482015260136024820152600160691b722d32b9379034b21034b9903337b93134b232b702604482015290519081900360640190fd5b8383610a45828261040a565b158015610a5157508015155b610a8f57604051600160e51b62461bcd028152600401808060200182810382526021815260200180610ca26021913960400191505060405180910390fd5b8584610a9b828261040a565b80610aa4575080155b610af85760408051600160e51b62461bcd02815260206004820152601d60248201527f746869732069642073686f756c642065786973747320696e206c697374000000604482015290519081900360640190fd5b6000610b038761095c565b600081815260208b9052604081205491925089908b90610b2284610997565b815260200190815260200160002081905550878a6000016000610b448c610997565b815260200190815260200160002081905550808a6000016000610b668c61095c565b815260200190815260200160002081905550888a6000016000610b888c610854565b81526020808201929092526040908101600090812093909355848352908c905290208990556001808b01546108409163ffffffff61088f16565b50805460018160011615610100020316600290046000825580601f10610be85750610c06565b601f016020900490600052602060002090810190610c069190610c87565b50565b828054600181600116156101000203166002900490600052602060002090601f016020900481019282601f10610c4a57805160ff1916838001178555610c77565b82800160010185558215610c77579182015b82811115610c77578251825591602001919060010190610c5c565b50610c83929150610c87565b5090565b61030591905b80821115610c835760008155600101610c8d56fe746869732069642073686f756c64204e4f542065786973747320696e206c697374a165627a7a7230582015177fca9fb7ecd6a21a0edc9d0fc6e5ad34c7cb444db2da8dde673f607789950029",
  "source": "pragma solidity 0.5;\n\nimport \"../EntityLib.sol\";\n\n/**\n * @title ListMock\n * @author Igor Dulger\n * @dev Mock contract to test List library. All docs are into origin library.\n */\ncontract EntityLibMock {\n\n    using EntityLib for EntityLib.Entities;\n    using ListAsRingLib for ListAsRingLib.ListData;\n\n    EntityLib.Entities private list;\n\n    function add(string calldata _data) external {\n        list.add(_data);\n    }\n\n    function update(uint _id, string calldata _data) external {\n        list.update(_id, _data);\n    }\n\n    function remove(uint _id) external {\n        list.remove(_id);\n    }\n\n    function get(uint _id) external view returns (uint, string memory, uint) {\n        return list.get(_id);\n    }\n\n    function itemsCount() external view returns (uint) {\n        return list.list.itemsCount();\n    }\n\n    function exists(uint _id) external view returns(bool) {\n        return list.list.exists(_id);\n    }\n}\n",
  "sourcePath": "/work/room2read/contracts/libs/mocks/EntityMock.sol",
  "compiler": {
    "name": "solc",
    "version": "0.5.7+commit.6da8b019.Emscripten.clang"
  },
  "schemaVersion": "3.0.6",
  "updatedAt": "2019-04-24T11:41:08.832Z",
  "devdoc": {
    "author": "Igor Dulger",
    "details": "Mock contract to test List library. All docs are into origin library.",
    "methods": {},
    "title": "ListMock"
  },
  "userdoc": {
    "methods": {}
  }
}