{
  "contractName": "HallOfFame",
  "abi": [
    {
      "constant": false,
      "inputs": [],
      "name": "renounceOwnership",
      "outputs": [],
      "payable": false,
      "stateMutability": "nonpayable",
      "type": "function",
      "signature": "0x715018a6"
    },
    {
      "constant": true,
      "inputs": [],
      "name": "owner",
      "outputs": [
        {
          "name": "",
          "type": "address"
        }
      ],
      "payable": false,
      "stateMutability": "view",
      "type": "function",
      "signature": "0x8da5cb5b"
    },
    {
      "constant": true,
      "inputs": [],
      "name": "isOwner",
      "outputs": [
        {
          "name": "",
          "type": "bool"
        }
      ],
      "payable": false,
      "stateMutability": "view",
      "type": "function",
      "signature": "0x8f32d59b"
    },
    {
      "constant": false,
      "inputs": [
        {
          "name": "newOwner",
          "type": "address"
        }
      ],
      "name": "transferOwnership",
      "outputs": [],
      "payable": false,
      "stateMutability": "nonpayable",
      "type": "function",
      "signature": "0xf2fde38b"
    },
    {
      "anonymous": false,
      "inputs": [
        {
          "indexed": true,
          "name": "actor",
          "type": "address"
        },
        {
          "indexed": true,
          "name": "id",
          "type": "uint256"
        },
        {
          "indexed": false,
          "name": "externalId",
          "type": "string"
        }
      ],
      "name": "DonatorAdded",
      "type": "event",
      "signature": "0x4fd495dc0439564e68429109957bab269f385cbaf6c42b58f94633e8fb3d32c8"
    },
    {
      "anonymous": false,
      "inputs": [
        {
          "indexed": true,
          "name": "actor",
          "type": "address"
        },
        {
          "indexed": true,
          "name": "id",
          "type": "uint256"
        }
      ],
      "name": "DonatorUpdated",
      "type": "event",
      "signature": "0x4aeb87bf87e31012911aa20d64e1386c515a525576d0601053925d56371bf0d6"
    },
    {
      "anonymous": false,
      "inputs": [
        {
          "indexed": true,
          "name": "actor",
          "type": "address"
        },
        {
          "indexed": true,
          "name": "id",
          "type": "uint256"
        }
      ],
      "name": "DonatorDeleted",
      "type": "event",
      "signature": "0xcc37517f558765a720769d3273406bf696f3a138d9efd1d1b9f4f995d375bd2b"
    },
    {
      "anonymous": false,
      "inputs": [
        {
          "indexed": true,
          "name": "actor",
          "type": "address"
        },
        {
          "indexed": true,
          "name": "id",
          "type": "uint256"
        },
        {
          "indexed": false,
          "name": "admin",
          "type": "address"
        }
      ],
      "name": "AdminAdded",
      "type": "event",
      "signature": "0x86ce2102d7c3e8e7219d4e82158e3304ab9af6762584a5beea1427cda87dad57"
    },
    {
      "anonymous": false,
      "inputs": [
        {
          "indexed": true,
          "name": "actor",
          "type": "address"
        },
        {
          "indexed": true,
          "name": "id",
          "type": "uint256"
        }
      ],
      "name": "AdminUpdated",
      "type": "event",
      "signature": "0xabfafa62f2f183eb8fe4ae2293ed2d954001a6a345c459031f171dedad91824e"
    },
    {
      "anonymous": false,
      "inputs": [
        {
          "indexed": true,
          "name": "actor",
          "type": "address"
        },
        {
          "indexed": true,
          "name": "id",
          "type": "uint256"
        }
      ],
      "name": "AdminDeleted",
      "type": "event",
      "signature": "0x1ae8675e17c1b9b10dce7d21a121923a77aacb85208ecd7507b554304128882f"
    },
    {
      "anonymous": false,
      "inputs": [
        {
          "indexed": true,
          "name": "actor",
          "type": "address"
        },
        {
          "indexed": true,
          "name": "id",
          "type": "uint256"
        },
        {
          "indexed": false,
          "name": "groupCode",
          "type": "string"
        }
      ],
      "name": "GroupAdded",
      "type": "event",
      "signature": "0x35b19329f15ea57e850d11fd0eba7f755772f032767ba846fa80806a53f206cf"
    },
    {
      "anonymous": false,
      "inputs": [
        {
          "indexed": true,
          "name": "actor",
          "type": "address"
        },
        {
          "indexed": true,
          "name": "id",
          "type": "uint256"
        }
      ],
      "name": "GroupUpdated",
      "type": "event",
      "signature": "0xfc7b4e2e3142f1b87553fa62a9ba798c4299a75896a50c1add00df6a621ebede"
    },
    {
      "anonymous": false,
      "inputs": [
        {
          "indexed": true,
          "name": "actor",
          "type": "address"
        },
        {
          "indexed": true,
          "name": "id",
          "type": "uint256"
        }
      ],
      "name": "GroupDeleted",
      "type": "event",
      "signature": "0xee44863a2edfb44a9442605d39f8ba7b0f1ea624b0e864bc8977c5e7d4e1c370"
    },
    {
      "anonymous": false,
      "inputs": [
        {
          "indexed": true,
          "name": "actor",
          "type": "address"
        },
        {
          "indexed": true,
          "name": "donatorId",
          "type": "uint256"
        },
        {
          "indexed": false,
          "name": "groupIds",
          "type": "uint256[]"
        }
      ],
      "name": "DonatorAddedToGroups",
      "type": "event",
      "signature": "0xdc8c4385c25121898b62bdd8ac24bd41b5032186735c71aa273ba3ba128389b1"
    },
    {
      "anonymous": false,
      "inputs": [
        {
          "indexed": true,
          "name": "actor",
          "type": "address"
        },
        {
          "indexed": true,
          "name": "donatorId",
          "type": "uint256"
        },
        {
          "indexed": false,
          "name": "groupIds",
          "type": "uint256[]"
        }
      ],
      "name": "DonatorRemovedFromGroups",
      "type": "event",
      "signature": "0x2e81a0614b693c57f96a5a5570d4fb72d2a74d1252a1c0427e11be174744e3ed"
    },
    {
      "anonymous": false,
      "inputs": [
        {
          "indexed": true,
          "name": "actor",
          "type": "address"
        },
        {
          "indexed": false,
          "name": "groupId",
          "type": "uint256"
        },
        {
          "indexed": true,
          "name": "donatorId",
          "type": "uint256"
        },
        {
          "indexed": false,
          "name": "to",
          "type": "uint256"
        }
      ],
      "name": "DonatorMovedInGroup",
      "type": "event",
      "signature": "0xab3883e082b28ceebfc776daf7984c7bef20f4d8984f6c48b29df86f9e86c13c"
    },
    {
      "anonymous": false,
      "inputs": [
        {
          "indexed": true,
          "name": "previousOwner",
          "type": "address"
        },
        {
          "indexed": true,
          "name": "newOwner",
          "type": "address"
        }
      ],
      "name": "OwnershipTransferred",
      "type": "event",
      "signature": "0x8be0079c531659141344cd1fd0a4f28419497f9722a3daafe3b4186f6b6457e0"
    },
    {
      "constant": false,
      "inputs": [
        {
          "name": "_donatorId",
          "type": "uint256"
        },
        {
          "name": "_removeIds",
          "type": "uint256[]"
        },
        {
          "name": "_addIds",
          "type": "uint256[]"
        }
      ],
      "name": "linkToGroups",
      "outputs": [],
      "payable": false,
      "stateMutability": "nonpayable",
      "type": "function",
      "signature": "0xe86af378"
    },
    {
      "constant": false,
      "inputs": [
        {
          "name": "_data",
          "type": "string"
        },
        {
          "name": "_externalId",
          "type": "string"
        }
      ],
      "name": "addDonator",
      "outputs": [
        {
          "name": "",
          "type": "uint256"
        }
      ],
      "payable": false,
      "stateMutability": "nonpayable",
      "type": "function",
      "signature": "0xd17295a1"
    },
    {
      "constant": false,
      "inputs": [
        {
          "name": "_data",
          "type": "string"
        },
        {
          "name": "_externalId",
          "type": "string"
        },
        {
          "name": "_linkGroupIds",
          "type": "uint256[]"
        }
      ],
      "name": "addDonatorAndLinkGroups",
      "outputs": [
        {
          "name": "",
          "type": "uint256"
        }
      ],
      "payable": false,
      "stateMutability": "nonpayable",
      "type": "function",
      "signature": "0x848eb290"
    },
    {
      "constant": false,
      "inputs": [
        {
          "name": "_id",
          "type": "uint256"
        },
        {
          "name": "_data",
          "type": "string"
        },
        {
          "name": "_externalId",
          "type": "string"
        }
      ],
      "name": "updateDonator",
      "outputs": [
        {
          "name": "",
          "type": "uint256"
        }
      ],
      "payable": false,
      "stateMutability": "nonpayable",
      "type": "function",
      "signature": "0x77d148d4"
    },
    {
      "constant": false,
      "inputs": [
        {
          "name": "_id",
          "type": "uint256"
        },
        {
          "name": "_data",
          "type": "string"
        },
        {
          "name": "_externalId",
          "type": "string"
        },
        {
          "name": "_unlinkGroupIds",
          "type": "uint256[]"
        },
        {
          "name": "_linkGroupIds",
          "type": "uint256[]"
        }
      ],
      "name": "updateDonatorAndLinkGroups",
      "outputs": [
        {
          "name": "",
          "type": "uint256"
        }
      ],
      "payable": false,
      "stateMutability": "nonpayable",
      "type": "function",
      "signature": "0xa1e73635"
    },
    {
      "constant": false,
      "inputs": [
        {
          "name": "_id",
          "type": "uint256"
        }
      ],
      "name": "removeDonator",
      "outputs": [
        {
          "name": "",
          "type": "uint256"
        }
      ],
      "payable": false,
      "stateMutability": "nonpayable",
      "type": "function",
      "signature": "0xb3cad25f"
    },
    {
      "constant": true,
      "inputs": [
        {
          "name": "_id",
          "type": "uint256"
        }
      ],
      "name": "getDonator",
      "outputs": [
        {
          "name": "id",
          "type": "uint256"
        },
        {
          "name": "data",
          "type": "string"
        },
        {
          "name": "version",
          "type": "uint256"
        },
        {
          "name": "index",
          "type": "string"
        }
      ],
      "payable": false,
      "stateMutability": "view",
      "type": "function",
      "signature": "0x7b66e17f"
    },
    {
      "constant": true,
      "inputs": [
        {
          "name": "_id",
          "type": "uint256"
        }
      ],
      "name": "nextDonator",
      "outputs": [
        {
          "name": "",
          "type": "uint256"
        }
      ],
      "payable": false,
      "stateMutability": "view",
      "type": "function",
      "signature": "0xeeeaab72"
    },
    {
      "constant": true,
      "inputs": [
        {
          "name": "_ids",
          "type": "uint256[]"
        }
      ],
      "name": "areDonators",
      "outputs": [
        {
          "name": "",
          "type": "bool[]"
        }
      ],
      "payable": false,
      "stateMutability": "view",
      "type": "function",
      "signature": "0xfd608bec"
    },
    {
      "constant": false,
      "inputs": [
        {
          "name": "_data",
          "type": "string"
        },
        {
          "name": "_code",
          "type": "string"
        }
      ],
      "name": "addGroup",
      "outputs": [
        {
          "name": "",
          "type": "uint256"
        }
      ],
      "payable": false,
      "stateMutability": "nonpayable",
      "type": "function",
      "signature": "0x3775bf1b"
    },
    {
      "constant": false,
      "inputs": [
        {
          "name": "_id",
          "type": "uint256"
        },
        {
          "name": "_data",
          "type": "string"
        },
        {
          "name": "_code",
          "type": "string"
        }
      ],
      "name": "updateGroup",
      "outputs": [
        {
          "name": "",
          "type": "uint256"
        }
      ],
      "payable": false,
      "stateMutability": "nonpayable",
      "type": "function",
      "signature": "0xeb3e4ae5"
    },
    {
      "constant": false,
      "inputs": [
        {
          "name": "_id",
          "type": "uint256"
        }
      ],
      "name": "removeGroup",
      "outputs": [
        {
          "name": "",
          "type": "uint256"
        }
      ],
      "payable": false,
      "stateMutability": "nonpayable",
      "type": "function",
      "signature": "0x5fe1410d"
    },
    {
      "constant": true,
      "inputs": [
        {
          "name": "_id",
          "type": "uint256"
        }
      ],
      "name": "getGroup",
      "outputs": [
        {
          "name": "id",
          "type": "uint256"
        },
        {
          "name": "data",
          "type": "string"
        },
        {
          "name": "version",
          "type": "uint256"
        },
        {
          "name": "index",
          "type": "string"
        }
      ],
      "payable": false,
      "stateMutability": "view",
      "type": "function",
      "signature": "0xceb60654"
    },
    {
      "constant": true,
      "inputs": [
        {
          "name": "_id",
          "type": "uint256"
        }
      ],
      "name": "nextGroup",
      "outputs": [
        {
          "name": "",
          "type": "uint256"
        }
      ],
      "payable": false,
      "stateMutability": "view",
      "type": "function",
      "signature": "0x4b7aaade"
    },
    {
      "constant": true,
      "inputs": [
        {
          "name": "_ids",
          "type": "uint256[]"
        }
      ],
      "name": "areGroups",
      "outputs": [
        {
          "name": "",
          "type": "bool[]"
        }
      ],
      "payable": false,
      "stateMutability": "view",
      "type": "function",
      "signature": "0x1c0c1314"
    },
    {
      "constant": true,
      "inputs": [
        {
          "name": "_donatorId",
          "type": "uint256"
        },
        {
          "name": "_ids",
          "type": "uint256[]"
        }
      ],
      "name": "areInGroups",
      "outputs": [
        {
          "name": "",
          "type": "bool[]"
        }
      ],
      "payable": false,
      "stateMutability": "view",
      "type": "function",
      "signature": "0x66954838"
    },
    {
      "constant": true,
      "inputs": [
        {
          "name": "_groupId",
          "type": "uint256"
        },
        {
          "name": "_donatorId",
          "type": "uint256"
        }
      ],
      "name": "nextGroupDonator",
      "outputs": [
        {
          "name": "",
          "type": "uint256"
        }
      ],
      "payable": false,
      "stateMutability": "view",
      "type": "function",
      "signature": "0xcd3a82d6"
    },
    {
      "constant": true,
      "inputs": [
        {
          "name": "_groupId",
          "type": "uint256"
        },
        {
          "name": "_fromId",
          "type": "uint256"
        },
        {
          "name": "_count",
          "type": "uint256"
        }
      ],
      "name": "getGroupDonators",
      "outputs": [
        {
          "name": "",
          "type": "uint256[]"
        }
      ],
      "payable": false,
      "stateMutability": "view",
      "type": "function",
      "signature": "0x4b1f7ad5"
    },
    {
      "constant": false,
      "inputs": [
        {
          "name": "_groupId",
          "type": "uint256"
        },
        {
          "name": "_id",
          "type": "uint256"
        },
        {
          "name": "_to",
          "type": "uint256"
        }
      ],
      "name": "moveDonator",
      "outputs": [
        {
          "name": "",
          "type": "uint256"
        }
      ],
      "payable": false,
      "stateMutability": "nonpayable",
      "type": "function",
      "signature": "0xb0b35a83"
    },
    {
      "constant": false,
      "inputs": [
        {
          "name": "_data",
          "type": "string"
        },
        {
          "name": "_address",
          "type": "address"
        }
      ],
      "name": "addAdmin",
      "outputs": [
        {
          "name": "",
          "type": "uint256"
        }
      ],
      "payable": false,
      "stateMutability": "nonpayable",
      "type": "function",
      "signature": "0x0831b05f"
    },
    {
      "constant": false,
      "inputs": [
        {
          "name": "_id",
          "type": "uint256"
        },
        {
          "name": "_data",
          "type": "string"
        },
        {
          "name": "_address",
          "type": "address"
        }
      ],
      "name": "updateAdmin",
      "outputs": [
        {
          "name": "",
          "type": "uint256"
        }
      ],
      "payable": false,
      "stateMutability": "nonpayable",
      "type": "function",
      "signature": "0x2355d0b1"
    },
    {
      "constant": false,
      "inputs": [
        {
          "name": "_id",
          "type": "uint256"
        }
      ],
      "name": "removeAdmin",
      "outputs": [
        {
          "name": "",
          "type": "uint256"
        }
      ],
      "payable": false,
      "stateMutability": "nonpayable",
      "type": "function",
      "signature": "0xad7bbc29"
    },
    {
      "constant": true,
      "inputs": [
        {
          "name": "_id",
          "type": "uint256"
        }
      ],
      "name": "getAdmin",
      "outputs": [
        {
          "name": "id",
          "type": "uint256"
        },
        {
          "name": "data",
          "type": "string"
        },
        {
          "name": "version",
          "type": "uint256"
        },
        {
          "name": "index",
          "type": "address"
        }
      ],
      "payable": false,
      "stateMutability": "view",
      "type": "function",
      "signature": "0x111fd88b"
    },
    {
      "constant": true,
      "inputs": [
        {
          "name": "_id",
          "type": "uint256"
        }
      ],
      "name": "nextAdmin",
      "outputs": [
        {
          "name": "",
          "type": "uint256"
        }
      ],
      "payable": false,
      "stateMutability": "view",
      "type": "function",
      "signature": "0x57164609"
    },
    {
      "constant": true,
      "inputs": [
        {
          "name": "_ids",
          "type": "uint256[]"
        }
      ],
      "name": "areAdmins",
      "outputs": [
        {
          "name": "",
          "type": "bool[]"
        }
      ],
      "payable": false,
      "stateMutability": "view",
      "type": "function",
      "signature": "0x043d3dce"
    }
  ],
  "bytecode": "0x60806040819052600080546001600160a01b03191633178082556001600160a01b0316917f8be0079c531659141344cd1fd0a4f28419497f9722a3daafe3b4186f6b6457e0908290a3613dea806100576000396000f3fe608060405234801561001057600080fd5b50600436106101cf5760003560e01c8063848eb29011610104578063cd3a82d6116100a2578063eb3e4ae511610071578063eb3e4ae514610e58578063eeeaab7214610f1d578063f2fde38b14610f3a578063fd608bec14610f60576101cf565b8063cd3a82d614610bc5578063ceb6065414610be8578063d17295a114610c05578063e86af37814610d2e576101cf565b8063a1e73635116100de578063a1e73635146109fd578063ad7bbc2914610b62578063b0b35a8314610b7f578063b3cad25f14610ba8576101cf565b8063848eb290146108af5780638da5cb5b146109bd5780638f32d59b146109e1576101cf565b80634b7aaade11610171578063669548381161014b57806366954838146105f7578063715018a61461066c57806377d148d4146106765780637b66e17f146107a6576101cf565b80634b7aaade146105a057806357164609146105bd5780635fe1410d146105da576101cf565b80631c0c1314116101ad5780631c0c1314146103cd5780632355d0b11461043b5780633775bf1b146104b95780634b1f7ad514610577576101cf565b8063043d3dce146101d45780630831b05f14610292578063111fd88b1461031b575b600080fd5b610242600480360360208110156101ea57600080fd5b810190602081018135600160201b81111561020457600080fd5b82018360208201111561021657600080fd5b803590602001918460208302840111600160201b8311171561023757600080fd5b509092509050610fce565b60408051602080825283518183015283519192839290830191858101910280838360005b8381101561027e578181015183820152602001610266565b505050509050019250505060405180910390f35b610309600480360360408110156102a857600080fd5b810190602081018135600160201b8111156102c257600080fd5b8201836020820111156102d457600080fd5b803590602001918460018302840111600160201b831117156102f557600080fd5b9193509150356001600160a01b031661101d565b60408051918252519081900360200190f35b6103386004803603602081101561033157600080fd5b50356110d7565b604080518581529081018390526001600160a01b038216606082015260806020808301828152865192840192909252855160a084019187019080838360005b8381101561038f578181015183820152602001610377565b50505050905090810190601f1680156103bc5780820380516001836020036101000a031916815260200191505b509550505050505060405180910390f35b610242600480360360208110156103e357600080fd5b810190602081018135600160201b8111156103fd57600080fd5b82018360208201111561040f57600080fd5b803590602001918460208302840111600160201b8311171561043057600080fd5b509092509050611118565b6103096004803603606081101561045157600080fd5b81359190810190604081016020820135600160201b81111561047257600080fd5b82018360208201111561048457600080fd5b803590602001918460018302840111600160201b831117156104a557600080fd5b9193509150356001600160a01b0316611160565b610309600480360360408110156104cf57600080fd5b810190602081018135600160201b8111156104e957600080fd5b8201836020820111156104fb57600080fd5b803590602001918460018302840111600160201b8311171561051c57600080fd5b919390929091602081019035600160201b81111561053957600080fd5b82018360208201111561054b57600080fd5b803590602001918460018302840111600160201b8311171561056c57600080fd5b509092509050611223565b6102426004803603606081101561058d57600080fd5b508035906020810135906040013561138b565b610309600480360360208110156105b657600080fd5b503561155b565b610309600480360360208110156105d357600080fd5b5035611574565b610309600480360360208110156105f057600080fd5b5035611587565b6102426004803603604081101561060d57600080fd5b81359190810190604081016020820135600160201b81111561062e57600080fd5b82018360208201111561064057600080fd5b803590602001918460208302840111600160201b8311171561066157600080fd5b5090925090506116c2565b6106746117f6565b005b6103096004803603606081101561068c57600080fd5b81359190810190604081016020820135600160201b8111156106ad57600080fd5b8201836020820111156106bf57600080fd5b803590602001918460018302840111600160201b831117156106e057600080fd5b91908080601f0160208091040260200160405190810160405280939291908181526020018383808284376000920191909152509295949360208101935035915050600160201b81111561073257600080fd5b82018360208201111561074457600080fd5b803590602001918460018302840111600160201b8311171561076557600080fd5b91908080601f016020809104026020016040519081016040528093929190818152602001838380828437600092019190915250929550611851945050505050565b6107c3600480360360208110156107bc57600080fd5b5035611924565b604051808581526020018060200184815260200180602001838103835286818151815260200191508051906020019080838360005b838110156108105781810151838201526020016107f8565b50505050905090810190601f16801561083d5780820380516001836020036101000a031916815260200191505b50838103825284518152845160209182019186019080838360005b83811015610870578181015183820152602001610858565b50505050905090810190601f16801561089d5780820380516001836020036101000a031916815260200191505b50965050505050505060405180910390f35b610309600480360360608110156108c557600080fd5b810190602081018135600160201b8111156108df57600080fd5b8201836020820111156108f157600080fd5b803590602001918460018302840111600160201b8311171561091257600080fd5b919390929091602081019035600160201b81111561092f57600080fd5b82018360208201111561094157600080fd5b803590602001918460018302840111600160201b8311171561096257600080fd5b919390929091602081019035600160201b81111561097f57600080fd5b82018360208201111561099157600080fd5b803590602001918460208302840111600160201b831117156109b257600080fd5b509092509050611956565b6109c5611a7a565b604080516001600160a01b039092168252519081900360200190f35b6109e9611a8a565b604080519115158252519081900360200190f35b610309600480360360a0811015610a1357600080fd5b81359190810190604081016020820135600160201b811115610a3457600080fd5b820183602082011115610a4657600080fd5b803590602001918460018302840111600160201b83111715610a6757600080fd5b919390929091602081019035600160201b811115610a8457600080fd5b820183602082011115610a9657600080fd5b803590602001918460018302840111600160201b83111715610ab757600080fd5b919390929091602081019035600160201b811115610ad457600080fd5b820183602082011115610ae657600080fd5b803590602001918460208302840111600160201b83111715610b0757600080fd5b919390929091602081019035600160201b811115610b2457600080fd5b820183602082011115610b3657600080fd5b803590602001918460208302840111600160201b83111715610b5757600080fd5b509092509050611a9b565b61030960048036036020811015610b7857600080fd5b5035611be9565b61030960048036036060811015610b9557600080fd5b5080359060208101359060400135611c62565b61030960048036036020811015610bbe57600080fd5b5035611cc7565b61030960048036036040811015610bdb57600080fd5b5080359060200135611e3c565b6107c360048036036020811015610bfe57600080fd5b5035611e5a565b61030960048036036040811015610c1b57600080fd5b810190602081018135600160201b811115610c3557600080fd5b820183602082011115610c4757600080fd5b803590602001918460018302840111600160201b83111715610c6857600080fd5b91908080601f0160208091040260200160405190810160405280939291908181526020018383808284376000920191909152509295949360208101935035915050600160201b811115610cba57600080fd5b820183602082011115610ccc57600080fd5b803590602001918460018302840111600160201b83111715610ced57600080fd5b91908080601f016020809104026020016040519081016040528093929190818152602001838380828437600092019190915250929550611e8c945050505050565b61067460048036036060811015610d4457600080fd5b81359190810190604081016020820135600160201b811115610d6557600080fd5b820183602082011115610d7757600080fd5b803590602001918460208302840111600160201b83111715610d9857600080fd5b9190808060200260200160405190810160405280939291908181526020018383602002808284376000920191909152509295949360208101935035915050600160201b811115610de757600080fd5b820183602082011115610df957600080fd5b803590602001918460208302840111600160201b83111715610e1a57600080fd5b919080806020026020016040519081016040528093929190818152602001838360200280828437600092019190915250929550611fbb945050505050565b61030960048036036060811015610e6e57600080fd5b81359190810190604081016020820135600160201b811115610e8f57600080fd5b820183602082011115610ea157600080fd5b803590602001918460018302840111600160201b83111715610ec257600080fd5b919390929091602081019035600160201b811115610edf57600080fd5b820183602082011115610ef157600080fd5b803590602001918460018302840111600160201b83111715610f1257600080fd5b5090925090506122f1565b61030960048036036020811015610f3357600080fd5b503561246f565b61067460048036036020811015610f5057600080fd5b50356001600160a01b0316612482565b61024260048036036020811015610f7657600080fd5b810190602081018135600160201b811115610f9057600080fd5b820183602082011115610fa257600080fd5b803590602001918460208302840111600160201b83111715610fc357600080fd5b50909250905061249f565b606061101683838080602002602001604051908101604052809392919081815260200183836020028082843760009201919091525060099392505063ffffffff6124e7169050565b9392505050565b6000611027611a8a565b61103057600080fd5b600061107b85858080601f01602080910402602001604051908101604052809392919081815260200183838082843760009201919091525060079392505063ffffffff6125ca169050565b905061108f600b848363ffffffff61265316565b604080516001600160a01b03851681529051829133917f86ce2102d7c3e8e7219d4e82158e3304ab9af6762584a5beea1427cda87dad579181900360200190a3509392505050565b6000606081806110ee60078663ffffffff61280116565b91955093509150838383611109600b8963ffffffff61292816565b93509350935093509193509193565b6060611016838380806020026020016040519081016040528093929190818152602001838360200280828437600092019190915250600f9392505063ffffffff6124e7169050565b600061116a611a8a565b61117357600080fd5b6111be8585858080601f0160208091040260200160405190810160405280939291908181526020018383808284376000920191909152506007949392505063ffffffff612947169050565b5060006111d2600b8463ffffffff612a2116565b90508581146111ed576111ed600b848863ffffffff612a3d16565b604051869033907fabfafa62f2f183eb8fe4ae2293ed2d954001a6a345c459031f171dedad91824e90600090a350949350505050565b600080611237600b3363ffffffff612a2116565b90506000811161127f5760408051600160e51b62461bcd0281526020600482015260116024820152600080516020613cf8833981519152604482015290519081900360640190fd5b60006112ca87878080601f016020809104026020016040519081016040528093929190818152602001838380828437600092019190915250600d9392505063ffffffff6125ca169050565b905061131685858080601f01602080910402602001604051908101604052809392919081815260200183838082843760009201919091525060119392508591505063ffffffff612b9116565b80336001600160a01b03167f35b19329f15ea57e850d11fd0eba7f755772f032767ba846fa80806a53f206cf878760405180806020018281038252848482818152602001925080828437600083820152604051601f909101601f19169092018290039550909350505050a35050949350505050565b60606103e88211156113e75760408051600160e51b62461bcd02815260206004820152601c60248201527f4c6973742063616e2774206265206d6f7265207468616e203130303000000000604482015290519081900360640190fd5b6000821161143f5760408051600160e51b62461bcd02815260206004820152601060248201527f436f756e742063616e2774206265203000000000000000000000000000000000604482015290519081900360640190fd5b611450600f8563ffffffff612e1e16565b6114a45760408051600160e51b62461bcd02815260206004820152601060248201527f67726f7570206d75737420657869737400000000000000000000000000000000604482015290519081900360640190fd5b6060826040519080825280602002602001820160405280156114d0578160200160208202803883390190505b506000868152601360205260408120919250906114f3908663ffffffff612e4b16565b905060005b60008211801561150757508481105b15611550578183828151811061151957fe5b6020908102919091018101919091526000888152601390915260409020611546908363ffffffff612e4b16565b91506001016114f8565b509095945050505050565b600061156e600f8363ffffffff612e4b16565b92915050565b600061156e60098363ffffffff612e4b16565b60008061159b600b3363ffffffff612a2116565b9050600081116115e35760408051600160e51b62461bcd0281526020600482015260116024820152600080516020613cf8833981519152604482015290519081900360640190fd5b6000838152601360205260409020600101541561164a5760408051600160e51b62461bcd02815260206004820152601c60248201527f43616e27742064656c657465206e6f6e20656d7074792067726f757000000000604482015290519081900360640190fd5b61165b600d8463ffffffff612ec916565b5061167e61167060118563ffffffff612f7d16565b60119063ffffffff61302116565b60008381526013602052604080822060010182905551849133917fee44863a2edfb44a9442605d39f8ba7b0f1ea624b0e864bc8977c5e7d4e1c3709190a350919050565b606082828080602002602001604051908101604052809392919081815260200183836020028082843760009201919091525050825160329250821190506117535760408051600160e51b62461bcd02815260206004820152601760248201527f61727261792063616e2774206265207468617420626967000000000000000000604482015290519081900360640190fd5b6040805185815260208087028201019091528490606090828015611781578160200160208202803883390190505b50905060005b828110156117ea576117c689601360008b8b868181106117a357fe5b905060200201358152602001908152602001600020612e1e90919063ffffffff16565b8282815181106117d257fe5b91151560209283029190910190910152600101611787565b50979650505050505050565b6117fe611a8a565b61180757600080fd5b600080546040516001600160a01b03909116907f8be0079c531659141344cd1fd0a4f28419497f9722a3daafe3b4186f6b6457e0908390a3600080546001600160a01b0319169055565b600080611865600b3363ffffffff612a2116565b9050600081116118ad5760408051600160e51b62461bcd0281526020600482015260116024820152600080516020613cf8833981519152604482015290519081900360640190fd5b6118bf6001868663ffffffff61294716565b5060006118d360058563ffffffff61310216565b90508581146118ee576118ee6005858863ffffffff61316d16565b604051869033907f4aeb87bf87e31012911aa20d64e1386c515a525576d0601053925d56371bf0d690600090a350509392505050565b60006060818161193b60018663ffffffff61280116565b9195509350915083838361110960058963ffffffff612f7d16565b60008061196a600b3363ffffffff612a2116565b9050600081116119b25760408051600160e51b62461bcd0281526020600482015260116024820152600080516020613cf8833981519152604482015290519081900360640190fd5b6040805160008082526020601f8b01819004810283018401845282018a815291929091611a2d918c908c908190870183828082843760009201919091525050604080516020601f8e018190048102820181019092528c815292508c91508b9081908401838280828437600092019190915250611e8c92505050565b9050611a6d8183888880806020026020016040519081016040528093929190818152602001838360200280828437600092019190915250611fbb92505050565b9998505050505050505050565b6000546001600160a01b03165b90565b6000546001600160a01b0316331490565b600080611aaf600b3363ffffffff612a2116565b905060008111611af75760408051600160e51b62461bcd0281526020600482015260116024820152600080516020613cf8833981519152604482015290519081900360640190fd5b611b6b8b8b8b8080601f01602080910402602001604051908101604052809392919081815260200183838082843760009201919091525050604080516020601f8f018190048102820181019092528d815292508d91508c908190840183828082843760009201919091525061185192505050565b50611bda8b87878080602002602001604051908101604052809392919081815260200183836020028082843760009201919091525050604080516020808b0282810182019093528a82529093508a925089918291850190849080828437600092019190915250611fbb92505050565b50989998505050505050505050565b6000611bf3611a8a565b611bfc57600080fd5b611c0d60078363ffffffff612ec916565b50611c30611c22600b8463ffffffff61292816565b600b9063ffffffff61335b16565b604051829033907f1ae8675e17c1b9b10dce7d21a121923a77aacb85208ecd7507b554304128882f90600090a3919050565b6000838152601360205260408120611c8190848463ffffffff6133ef16565b60408051858152602081018490528151859233927fab3883e082b28ceebfc776daf7984c7bef20f4d8984f6c48b29df86f9e86c13c929081900390910190a39392505050565b600080611cdb600b3363ffffffff612a2116565b905060008111611d235760408051600160e51b62461bcd0281526020600482015260116024820152600080516020613cf8833981519152604482015290519081900360640190fd5b6000611d36600f8263ffffffff612e4b16565b60408051600180825281830190925291925060609190602080830190803883395050604080516000815260208101909152919250505b8215611dd2576000838152601360205260409020611d90908763ffffffff612e1e16565b15611dba578282600081518110611da357fe5b602002602001018181525050611dba868383611fbb565b611dcb600f8463ffffffff612e4b16565b9250611d6c565b611de360018763ffffffff612ec916565b50611e06611df860058863ffffffff612f7d16565b60059063ffffffff61302116565b604051869033907fcc37517f558765a720769d3273406bf696f3a138d9efd1d1b9f4f995d375bd2b90600090a350505050919050565b6000828152601360205260408120611016908363ffffffff612e4b16565b600060608181611e71600d8663ffffffff61280116565b9195509350915083838361110960118963ffffffff612f7d16565b600080611ea0600b3363ffffffff612a2116565b905060008111611ee85760408051600160e51b62461bcd0281526020600482015260116024820152600080516020613cf8833981519152604482015290519081900360640190fd5b6000611efb60018663ffffffff6125ca16565b9050611f0f6005858363ffffffff612b9116565b80336001600160a01b03167f4fd495dc0439564e68429109957bab269f385cbaf6c42b58f94633e8fb3d32c8866040518080602001828103825283818151815260200191508051906020019080838360005b83811015611f79578181015183820152602001611f61565b50505050905090810190601f168015611fa65780820380516001836020036101000a031916815260200191505b509250505060405180910390a3949350505050565b806032808251106120165760408051600160e51b62461bcd02815260206004820152601760248201527f61727261792063616e2774206265207468617420626967000000000000000000604482015290519081900360640190fd5b836032808251106120715760408051600160e51b62461bcd02815260206004820152601760248201527f61727261792063616e2774206265207468617420626967000000000000000000604482015290519081900360640190fd5b8551855160005b82811015612128576120aa89828151811061208f57fe5b6020026020010151600d600201612e1e90919063ffffffff16565b6120e857604051600160e51b62461bcd028152600401808060200182810382526024815260200180613d9b6024913960400191505060405180910390fd5b6121208a601360008c85815181106120fc57fe5b6020026020010151815260200190815260200160002061355b90919063ffffffff16565b600101612078565b5081156121b05788336001600160a01b03167f2e81a0614b693c57f96a5a5570d4fb72d2a74d1252a1c0427e11be174744e3ed8a6040518080602001828103825283818151815260200191508051906020019060200280838360005b8381101561219c578181015183820152602001612184565b505050509050019250505060405180910390a35b60005b8181101561225e576121ca88828151811061208f57fe5b61221e5760408051600160e51b62461bcd02815260206004820181905260248201527f43616e27742061737369676e20746f20756e6578697374696e672067726f7570604482015290519081900360640190fd5b6122568a601360008b858151811061223257fe5b602002602001015181526020019081526020016000206136c790919063ffffffff16565b6001016121b3565b5080156122e65788336001600160a01b03167fdc8c4385c25121898b62bdd8ac24bd41b5032186735c71aa273ba3ba128389b1896040518080602001828103825283818151815260200191508051906020019060200280838360005b838110156122d25781810151838201526020016122ba565b505050509050019250505060405180910390a35b505050505050505050565b600080612305600b3363ffffffff612a2116565b90506000811161234d5760408051600160e51b62461bcd0281526020600482015260116024820152600080516020613cf8833981519152604482015290519081900360640190fd5b6123988787878080601f016020809104026020016040519081016040528093929190818152602001838380828437600092019190915250600d949392505063ffffffff612947169050565b5060006123e485858080601f01602080910402602001604051908101604052809392919081815260200183838082843760009201919091525060119392505063ffffffff613102169050565b90508781146124375761243785858080601f01602080910402602001604051908101604052809392919081815260200183838082843760009201919091525060119392508c91505063ffffffff61316d16565b604051889033907ffc7b4e2e3142f1b87553fa62a9ba798c4299a75896a50c1add00df6a621ebede90600090a3505095945050505050565b600061156e60038363ffffffff612e4b16565b61248a611a8a565b61249357600080fd5b61249c81613777565b50565b606061101683838080602002602001604051908101604052809392919081815260200183836020028082843760009201919091525060039392505063ffffffff6124e7169050565b80516060906032811061252e57604051600160e51b62461bcd028152600401808060200182810382526022815260200180613d186022913960400191505060405180910390fd5b60608160405190808252806020026020018201604052801561255a578160200160208202803883390190505b50905060005b828110156125c15785600001600061258a87848151811061257d57fe5b60200260200101516137e5565b815260200190815260200160002054600014158282815181106125a957fe5b91151560209283029190910190910152600101612560565b50949350505050565b81546000906125e090600163ffffffff61382016565b80845560408051606081018252828152602080820186815260018385018190526000958652808901835293909420825181559351805192949361262b93908501929190910190613bff565b5060409190910151600291820155835461264d9185019063ffffffff6136c716565b50505490565b816001600160a01b0381166126ac5760408051600160e51b62461bcd0281526020600482015260146024820152600160601b73696e6465782063616e277420626520656d70747902604482015290519081900360640190fd5b81806126f95760408051600160e51b62461bcd0281526020600482015260116024820152600160781b7069642063616e277420626520656d70747902604482015290519081900360640190fd5b84846127058282612a21565b156127485760408051600160e51b62461bcd02815260206004820152601a6024820152600080516020613d3a833981519152604482015290519081900360640190fd5b6000858152600188016020526040902054879086906001600160a01b0316156127bb5760408051600160e51b62461bcd02815260206004820152601760248201527f5468697320696420697320616c72656164792075736564000000000000000000604482015290519081900360640190fd5b5050506001600160a01b0390941660008181526020878152604080832087905595825260019097019096529290942080546001600160a01b031916909217909155505050565b6000606081848480158015906128265750600081815260018301602052604090205481145b6128705760408051600160e51b62461bcd0281526020600482015260106024820152600160821b6f1a5908191bd95cdb89dd08195e1a5cdd02604482015290519081900360640190fd5b6000868152600188810160209081526040928390208054600280830154928501805487519681161561010002600019011691909104601f81018590048502860185019096528585529094909391928491908301828280156129125780601f106128e757610100808354040283529160200191612912565b820191906000526020600020905b8154815290600101906020018083116128f557829003601f168201915b5050505050915094509450945050509250925092565b600090815260019190910160205260409020546001600160a01b031690565b6000838380158015906129695750600081815260018301602052604090205481145b6129b35760408051600160e51b62461bcd0281526020600482015260106024820152600160821b6f1a5908191bd95cdb89dd08195e1a5cdd02604482015290519081900360640190fd5b600085815260018088016020908152604090922086516129db93919092019190870190613bff565b5060008581526001878101602052604090912060020154612a019163ffffffff61382016565b600086815260018801602052604090206002015584925050509392505050565b6001600160a01b03166000908152602091909152604090205490565b816001600160a01b038116612a965760408051600160e51b62461bcd0281526020600482015260146024820152600160601b73696e6465782063616e277420626520656d70747902604482015290519081900360640190fd5b8383612aa28282612a21565b15612ae55760408051600160e51b62461bcd02815260206004820152601a6024820152600080516020613d3a833981519152604482015290519081900360640190fd5b6000612af18786612928565b90506001600160a01b038116612b455760408051600160e51b62461bcd02815260206004820152600e6024820152600160901b6d4964206d7573742065786973747302604482015290519081900360640190fd5b6001600160a01b039081166000908152602088815260408083208390559790921680825287822087905595815260019097019052505050912080546001600160a01b0319169091179055565b815182908190612be55760408051600160e51b62461bcd0281526020600482015260146024820152600160601b73696e6465782063616e277420626520656d70747902604482015290519081900360640190fd5b8280612c325760408051600160e51b62461bcd0281526020600482015260116024820152600160781b7069642063616e277420626520656d70747902604482015290519081900360640190fd5b8585612c3e8282613102565b15612c815760408051600160e51b62461bcd02815260206004820152601a6024820152600080516020613d3a833981519152604482015290519081900360640190fd5b878660608260010160008381526020019081526020016000208054600181600116156101000203166002900480601f016020809104026020016040519081016040528092919081815260200182805460018160011615610100020316600290048015612d2e5780601f10612d0357610100808354040283529160200191612d2e565b820191906000526020600020905b815481529060010190602001808311612d1157829003601f168201915b505050505090508051600014612d8e5760408051600160e51b62461bcd02815260206004820152601760248201527f5468697320696420697320616c72656164792075736564000000000000000000604482015290519081900360640190fd5b888b6000018b6040518082805190602001908083835b60208310612dc35780518252601f199092019160209182019101612da4565b51815160209384036101000a60001901801990921691161790529201948552506040805194859003820190942094909455505060008b815260018e018352208b51612e10928d0190613bff565b505050505050505050505050565b6000818382612e2c836137e5565b8152602001908152602001600020541480156110165750501515919050565b60008282612e598282612e1e565b80612e62575080155b612ea45760408051600160e51b62461bcd02815260206004820152601d6024820152600080516020613d5a833981519152604482015290519081900360640190fd5b846000612eb086613832565b8152602001908152602001600020549250505092915050565b600082828015801590612eeb5750600081815260018301602052604090205481145b612f355760408051600160e51b62461bcd0281526020600482015260106024820152600160821b6f1a5908191bd95cdb89dd08195e1a5cdd02604482015290519081900360640190fd5b60008481526001808701602052604082208281559190612f5790830182613c7d565b506000600291820155612f729086018563ffffffff61355b16565b506001949350505050565b60008181526001838101602090815260409283902080548451600294821615610100026000190190911693909304601f810183900483028401830190945283835260609390918301828280156130145780601f10612fe957610100808354040283529160200191613014565b820191906000526020600020905b815481529060010190602001808311612ff757829003601f168201915b5050505050905092915050565b600061302d8383613102565b90508061307b5760408051600160e51b62461bcd0281526020600482015260116024820152600160781b70496e646578206d7573742065786973747302604482015290519081900360640190fd5b82600001826040518082805190602001908083835b602083106130af5780518252601f199092019160209182019101613090565b51815160209384036101000a600019018019909216911617905292019485525060408051948590038201909420600090819055858152600188019091529283206130fd939092509050613c7d565b505050565b600082600001826040518082805190602001908083835b602083106131385780518252601f199092019160209182019101613119565b51815160209384036101000a600019018019909216911617905292019485525060405193849003019092205495945050505050565b8151829081906131c15760408051600160e51b62461bcd0281526020600482015260146024820152600160601b73696e6465782063616e277420626520656d70747902604482015290519081900360640190fd5b84846131cd8282613102565b156132105760408051600160e51b62461bcd02815260206004820152601a6024820152600080516020613d3a833981519152604482015290519081900360640190fd5b606061321c8887612f7d565b8051909150819061326b5760408051600160e51b62461bcd02815260206004820152600e6024820152600160901b6d4964206d7573742065786973747302604482015290519081900360640190fd5b88600001826040518082805190602001908083835b6020831061329f5780518252601f199092019160209182019101613280565b51815160209384036101000a60001901801990921691161790529201948552506040519384900381018420600090558b518b948e94508d9350918291908401908083835b602083106133025780518252601f1990920191602091820191016132e3565b51815160209384036101000a600019018019909216911617905292019485525060408051948590038201909420949094555050600089815260018c01835220895161334f928b0190613bff565b50505050505050505050565b60006133678383612a21565b9050806133b55760408051600160e51b62461bcd0281526020600482015260116024820152600160781b70496e646578206d7573742065786973747302604482015290519081900360640190fd5b6001600160a01b039091166000908152602083815260408083208390559282526001909301909252902080546001600160a01b0319169055565b81600081116134365760408051600160e51b62461bcd0281526020600482015260136024820152600080516020613cd8833981519152604482015290519081900360640190fd5b83836134428282612e1e565b8061344b575080155b61348d5760408051600160e51b62461bcd02815260206004820152601d6024820152600080516020613d5a833981519152604482015290519081900360640190fd5b85846134998282612e1e565b806134a2575080155b6134e45760408051600160e51b62461bcd02815260206004820152601d6024820152600080516020613d5a833981519152604482015290519081900360640190fd5b8587141561353c5760408051600160e51b62461bcd02815260206004820152601860248201527f69642063616e277420626520657175616c207461726765740000000000000000604482015290519081900360640190fd5b613546888861355b565b61355188888861386d565b5050505050505050565b80600081116135a25760408051600160e51b62461bcd0281526020600482015260136024820152600080516020613cd8833981519152604482015290519081900360640190fd5b82826135ae8282612e1e565b806135b7575080155b6135f95760408051600160e51b62461bcd02815260206004820152601d6024820152600080516020613d5a833981519152604482015290519081900360640190fd5b600061360485613a2b565b9050600061361186613832565b9050600061361e876137e5565b600084815260208a905260408082205485835290822054929350919081908b9061364785613832565b815260200190815260200160002081905550818a600001600061366984613a2b565b81526020808201929092526040908101600090812093909355878352908c90528082208290558582528082208290558482528120556001808b01546136b39163ffffffff613a6616565b8a6001018190555050505050505050505050565b806000811161370e5760408051600160e51b62461bcd0281526020600482015260136024820152600080516020613cd8833981519152604482015290519081900360640190fd5b828261371a8282612e1e565b15801561372657508015155b61376457604051600160e51b62461bcd028152600401808060200182810382526021815260200180613d7a6021913960400191505060405180910390fd5b61377085856000613a7b565b5050505050565b6001600160a01b03811661378a57600080fd5b600080546040516001600160a01b03808516939216917f8be0079c531659141344cd1fd0a4f28419497f9722a3daafe3b4186f6b6457e091a3600080546001600160a01b0319166001600160a01b0392909216919091179055565b60408051600160e11b6331bab93902602080830191909152602480830194909452825180830390940184526044909101909152815191012090565b60008282018381101561101657600080fd5b60408051600160e21b631b995e1d02602080830191909152602480830194909452825180830390940184526044909101909152815191012090565b81600081116138b45760408051600160e51b62461bcd0281526020600482015260136024820152600080516020613cd8833981519152604482015290519081900360640190fd5b83836138c08282612e1e565b1580156138cc57508015155b61390a57604051600160e51b62461bcd028152600401808060200182810382526021815260200180613d7a6021913960400191505060405180910390fd5b85846139168282612e1e565b8061391f575080155b6139615760408051600160e51b62461bcd02815260206004820152601d6024820152600080516020613d5a833981519152604482015290519081900360640190fd5b600061396c87613832565b600081815260208b9052604081205491925089908b9061398b84613a2b565b815260200190815260200160002081905550808a60000160006139ad8c613832565b815260200190815260200160002081905550888a60000160006139cf8c6137e5565b815260200190815260200160002081905550878a60000160006139f18c613a2b565b81526020808201929092526040908101600090812093909355848352908c905290208990556001808b01546136b39163ffffffff61382016565b60408051600160e11b63383932bb02602080830191909152602480830194909452825180830390940184526044909101909152815191012090565b600082821115613a7557600080fd5b50900390565b8160008111613ac25760408051600160e51b62461bcd0281526020600482015260136024820152600080516020613cd8833981519152604482015290519081900360640190fd5b8383613ace8282612e1e565b158015613ada57508015155b613b1857604051600160e51b62461bcd028152600401808060200182810382526021815260200180613d7a6021913960400191505060405180910390fd5b8584613b248282612e1e565b80613b2d575080155b613b6f5760408051600160e51b62461bcd02815260206004820152601d6024820152600080516020613d5a833981519152604482015290519081900360640190fd5b6000613b7a87613a2b565b600081815260208b9052604081205491925089908b90613b9984613832565b815260200190815260200160002081905550878a6000016000613bbb8c613832565b815260200190815260200160002081905550808a6000016000613bdd8c613a2b565b815260200190815260200160002081905550888a60000160006139f18c6137e5565b828054600181600116156101000203166002900490600052602060002090601f016020900481019282601f10613c4057805160ff1916838001178555613c6d565b82800160010185558215613c6d579182015b82811115613c6d578251825591602001919060010190613c52565b50613c79929150613cbd565b5090565b50805460018160011615610100020316600290046000825580601f10613ca3575061249c565b601f01602090049060005260206000209081019061249c91905b611a8791905b80821115613c795760008155600101613cc356fe5a65726f20696420697320666f72626964656e00000000000000000000000000596f7520617265206e6f742061646d696e0000000000000000000000000000005374617475732061727261792063616e2774206265206d6f7265207468616e2035305468697320696e64657820697320616c72656164792075736564000000000000746869732069642073686f756c642065786973747320696e206c697374000000746869732069642073686f756c64204e4f542065786973747320696e206c69737443616e277420756e61737369676e2066726f6d20756e6578697374696e672067726f7570a165627a7a72305820b955bea85b78fd038b53e44e012f81ad1d69bce1828d4e3b81ff51a308f167df0029",
  "source": "pragma solidity ^0.5.0;\n\nimport \"./libs/ListAsRingLib.sol\";\nimport \"./libs/EntityLib.sol\";\nimport \"./libs/AddressIndexLib.sol\";\nimport \"./libs/StringIndexLib.sol\";\n\nimport \"openzeppelin-solidity/contracts/ownership/Ownable.sol\";\n\ncontract HallOfFame is Ownable {\n    using EntityLib for EntityLib.Entities;\n    using ListAsRingLib for ListAsRingLib.ListData;\n    using AddressIndexLib for AddressIndexLib.Indexes;\n    using StringIndexLib for StringIndexLib.Indexes;\n\n    EntityLib.Entities private donators;\n    StringIndexLib.Indexes private donatorIndexes;\n\n    EntityLib.Entities private admins;\n    AddressIndexLib.Indexes private adminIndexes;\n\n    EntityLib.Entities private groups;\n    StringIndexLib.Indexes private groupIndexes;\n\n    mapping (uint => ListAsRingLib.ListData) private groupDonators;\n\n    /**\n    * @dev Check if a sender is admin\n    */\n    modifier onlyAdmin() {\n        uint id = adminIndexes.getId(msg.sender);\n        require(id > 0, \"You are not admin\");\n        _;\n    }\n\n    /**\n    * @dev Check if input array has valid size\n    */\n    modifier validArraySize(uint[] memory _ids, uint _size) {\n        require(_ids.length < _size, \"array can't be that big\");\n        _;\n    }\n\n    /**\n    * @dev Event for adding a donator.\n    * @param actor Who added donator (Indexed).\n    * @param id donator id (Indexed).\n    * @param externalId donator unique code.\n    */\n    event DonatorAdded(address indexed actor, uint indexed id, string externalId);\n\n    /**\n    * @dev Event for editing donator.\n    * @param actor Who added donator (Indexed).\n    * @param id donator id (Indexed).\n    */\n    event DonatorUpdated(address indexed actor, uint indexed id);\n\n    /**\n    * @dev Event for donator deleting.\n    * @param actor Who deleted donator (Indexed).\n    * @param id donator id (Indexed).\n    */\n    event DonatorDeleted(address indexed actor, uint indexed id);\n\n    /**\n    * @dev Event for adding a admin.\n    * @param actor Who added admin (Indexed).\n    * @param id admin id (Indexed).\n    * @param admin admin address.\n    */\n    event AdminAdded(address indexed actor, uint indexed id, address admin);\n\n    /**\n    * @dev Event for editing admin.\n    * @param actor Who added admin (Indexed).\n    * @param id admin id (Indexed).\n    */\n    event AdminUpdated(address indexed actor, uint indexed id);\n\n    /**\n    * @dev Event for admin deleting.\n    * @param actor Who deleted admin (Indexed).\n    * @param id admin id (Indexed).\n    */\n    event AdminDeleted(address indexed actor, uint indexed id);\n    /**\n    * @dev Event for adding a group.\n    * @param actor Who added group (Indexed).\n    * @param id group id (Indexed).\n    * @param groupCode group unique code.\n    */\n    event GroupAdded(address indexed actor, uint indexed id, string groupCode);\n\n    /**\n    * @dev Event for editing group.\n    * @param actor Who added group (Indexed).\n    * @param id group id (Indexed).\n    */\n    event GroupUpdated(address indexed actor, uint indexed id);\n\n    /**\n    * @dev Event for group deleting.\n    * @param actor Who deleted group (Indexed).\n    * @param id group id (Indexed).\n    */\n    event GroupDeleted(address indexed actor, uint indexed id);\n\n    /**\n    * @dev Event for adding donator to groups.\n    * @param actor actor (Indexed).\n    * @param donatorId donator id (Indexed).\n    * @param groupIds group ids.\n    */\n    event DonatorAddedToGroups(address indexed actor, uint indexed donatorId, uint[] groupIds);\n\n    /**\n    * @dev Event for removed donator from groups.\n    * @param actor actor (Indexed).\n    * @param donatorId donator id (Indexed).\n    * @param groupIds group ids.\n    */\n    event DonatorRemovedFromGroups(address indexed actor, uint indexed donatorId, uint[] groupIds);\n\n    /**\n    * @dev Event for moving donator in a group.\n    * @param actor actor (Indexed).\n    * @param groupId group id (Indexed)\n    * @param donatorId donator id (Indexed).\n    * @param to donator new position after this id\n    */\n    event DonatorMovedInGroup(address indexed actor, uint groupId, uint indexed donatorId, uint to);\n\n    /**\n    * @dev Link donator to groups.\n    * @param _donatorId donator ids.\n    * @param _removeIds group ids.\n    * @param _addIds group ids.\n    * //revert\n    */\n    function linkToGroups(\n        uint _donatorId,\n        uint[] memory _removeIds,\n        uint[] memory _addIds\n    )\n        public\n        validArraySize(_addIds, 50)\n        validArraySize(_removeIds, 50)\n    {\n        uint removeLen = _removeIds.length;\n        uint addLen = _addIds.length;\n\n        for (uint i = 0; i < removeLen; i++) {\n            require(groups.list.exists(_removeIds[i]), \"Can't unassign from unexisting group\");\n            groupDonators[_removeIds[i]].remove(_donatorId);\n        }\n\n        if (removeLen > 0) {\n            emit DonatorRemovedFromGroups(msg.sender, _donatorId, _removeIds);\n        }\n\n        for (uint i = 0; i < addLen; i++) {\n            require(groups.list.exists(_addIds[i]), \"Can't assign to unexisting group\");\n            groupDonators[_addIds[i]].add(_donatorId);\n        }\n        if (addLen > 0) {\n            emit DonatorAddedToGroups(msg.sender, _donatorId, _addIds);\n        }\n    }\n\n    /**\n    * @dev Create a donator\n    * @param _data donator info.\n    * @param _externalId donator uniq code.\n    * @return uint\n    */\n    function addDonator(\n        string memory _data,\n        string memory _externalId\n    )\n    public\n    onlyAdmin\n    returns(uint)\n    {\n        uint id = donators.add(_data);\n        donatorIndexes.add(_externalId, id);\n        emit DonatorAdded(msg.sender, id, _externalId);\n        return id;\n    }\n\n    /**\n    * @dev Create a donator and assign groups\n    * @param _data donator info.\n    * @param _externalId donator uniq code.\n    * @param _linkGroupIds group ids to link.\n    * @return uint\n    */\n    function addDonatorAndLinkGroups(\n        string calldata _data,\n        string calldata _externalId,\n        uint[] calldata _linkGroupIds\n    )\n    external\n    onlyAdmin\n    returns(uint)\n    {\n        uint[] memory unlink = new uint[](0);\n        uint id = addDonator(_data, _externalId);\n        linkToGroups(id, unlink, _linkGroupIds);\n        return id;\n    }\n\n    /**\n    * @dev Update a donator\n    * @param _id donator id.\n    * @param _data donator info.\n    * @param _externalId donator uniq code.\n    * @return uint\n    */\n    function updateDonator(\n        uint _id,\n        string memory _data,\n        string memory _externalId\n    )\n    public\n    onlyAdmin\n    returns(uint)\n    {\n        donators.update(_id, _data);\n        uint id = donatorIndexes.getId(_externalId);\n        if (id != _id) {\n            donatorIndexes.update(_externalId, _id);\n        }\n        emit DonatorUpdated(msg.sender, _id);\n    }\n\n    /**\n    * @dev Update donator and assign groups\n    * @param _data donator info.\n    * @param _externalId donator uniq code.\n    * @param _unlinkGroupIds group ids to unlink.\n    * @param _linkGroupIds group ids to link.\n    * @return uint\n    */\n    function updateDonatorAndLinkGroups(\n        uint _id,\n        string calldata _data,\n        string calldata _externalId,\n        uint[] calldata _unlinkGroupIds,\n        uint[] calldata _linkGroupIds\n    )\n    external\n    onlyAdmin\n    returns(uint)\n    {\n        updateDonator(_id, _data, _externalId);\n        linkToGroups(_id, _unlinkGroupIds, _linkGroupIds);\n        return _id;\n    }\n\n    /**\n    * @dev Create a donator\n    * @param _id donator id.\n    * @return uint\n    */\n    function removeDonator(\n        uint _id\n    )\n    external\n    onlyAdmin\n    returns(uint)\n    {\n        uint groupId = groups.list.getNextId(0);\n        uint[] memory removeGroupIds = new uint[](1);\n        uint[] memory emptyArray = new uint[](0);\n        while (groupId > 0) {\n            if (groupDonators[groupId].exists(_id)) {\n                removeGroupIds[0] = groupId;\n                linkToGroups(_id, removeGroupIds, emptyArray);\n            }\n//            require(!groupDonators[groupId].exists(_id), \"Remove donator from all groups first\");\n            groupId = groups.list.getNextId(groupId);\n        }\n        donators.remove(_id);\n        donatorIndexes.remove(donatorIndexes.getIndex(_id));\n        emit DonatorDeleted(msg.sender, _id);\n    }\n\n    /**\n    * @dev Get donator.\n    * @param _id donator id.\n    * @return uint, string\n    * //revert\n    */\n    function getDonator(uint _id) external view returns (\n        uint id,\n        string memory data,\n        uint version,\n        string memory index\n    ) {\n        (id, data, version) = donators.get(_id);\n        return (id, data, version, donatorIndexes.getIndex(_id));\n    }\n\n    /**\n    * @dev Get next donator.\n    * @param _id donator id.\n    * @return uint\n    * //revert\n    */\n    function nextDonator(uint _id) external view returns (uint) {\n        return donators.list.getNextId(_id);\n    }\n\n    /**\n    * @dev Check if  donators exist.\n    * @param _ids donator ids.\n    * @return bool[]\n    * //revert\n    */\n    function areDonators(uint[] calldata _ids) external view returns (bool[] memory) {\n        return donators.list.statuses(_ids);\n    }\n\n    /**\n    * @dev Create a group\n    * @param _data group info.\n    * @param _code group uniq code.\n    * @return uint\n    */\n    function addGroup(\n        string calldata _data,\n        string calldata _code\n    )\n    external\n    onlyAdmin\n    returns(uint)\n    {\n        uint id = groups.add(_data);\n        groupIndexes.add(_code, id);\n        emit GroupAdded(msg.sender, id, _code);\n    }\n\n    /**\n    * @dev Update a group\n    * @param _id group id.\n    * @param _data group info.\n    * @param _code group uniq code.\n    * @return uint\n    */\n    function updateGroup(\n        uint _id,\n        string calldata _data,\n        string calldata _code\n    )\n    external\n    onlyAdmin\n    returns(uint)\n    {\n        groups.update(_id, _data);\n        uint id = groupIndexes.getId(_code);\n        if (id != _id) {\n            groupIndexes.update(_code, _id);\n        }\n        emit GroupUpdated(msg.sender, _id);\n    }\n\n    /**\n    * @dev Create a group\n    * @param _id group id.\n    * @return uint\n    */\n    function removeGroup(\n        uint _id\n    )\n    external\n    onlyAdmin\n    returns(uint)\n    {\n        require(groupDonators[_id].count == 0, \"Can't delete non empty group\");\n        groups.remove(_id);\n        groupIndexes.remove(groupIndexes.getIndex(_id));\n        delete groupDonators[_id];\n\n        emit GroupDeleted(msg.sender, _id);\n    }\n\n    /**\n    * @dev Get group.\n    * @param _id group id.\n    * @return uint, string, string\n    * //revert\n    */\n    function getGroup(uint _id) external view returns (\n        uint id,\n        string memory data,\n        uint version,\n        string memory index\n    ) {\n        (id, data, version) = groups.get(_id);\n        return (id, data, version, groupIndexes.getIndex(_id));\n    }\n\n    /**\n    * @dev Get next group.\n    * @param _id group id.\n    * @return uint\n    * //revert\n    */\n    function nextGroup(uint _id) external view returns (uint) {\n        return groups.list.getNextId(_id);\n    }\n\n    /**\n    * @dev Check if donators exist.\n    * @param _ids donator ids.\n    * @return bool[]\n    * //revert\n    */\n    function areGroups(uint[] calldata _ids) external view returns (bool[] memory) {\n        return groups.list.statuses(_ids);\n    }\n\n    /**\n    * @dev Check if donators exist.\n    * @param _donatorId donator ids.\n    * @param _ids group ids.\n    * @return bool[]\n    * //revert\n    */\n    function areInGroups(uint _donatorId, uint[] calldata _ids)\n        external\n        validArraySize(_ids, 50)\n        view\n        returns (bool[] memory)\n    {\n        uint len = _ids.length;\n        bool[] memory result = new bool[](len);\n        for (uint i = 0; i < len; i++) {\n            result[i] = groupDonators[_ids[i]].exists(_donatorId);\n        }\n        return result;\n    }\n\n    /**\n    * @dev Get next donator in group.\n    * @param _groupId group id.\n    * @param _donatorId donator id.\n    * @return uint\n    * //revert\n    */\n    function nextGroupDonator(uint _groupId, uint _donatorId) external view returns (uint) {\n        return groupDonators[_groupId].getNextId(_donatorId);\n    }\n\n    /**\n    * @dev Get banch of donators in group. Order dependent\n    * @param _groupId group id.\n    * @param _fromId donator id.\n    * @param _count number of donators.\n    * @return uint\n    * //revert\n    */\n    function getGroupDonators(uint _groupId, uint _fromId, uint _count) external view returns (uint[] memory) {\n        require(_count <= 1000, \"List can't be more than 1000\");\n        require(_count > 0, \"Count can't be 0\");\n        require(groups.list.exists(_groupId), \"group must exist\");\n        uint[] memory result = new uint[](_count);\n        uint id = groupDonators[_groupId].getNextId(_fromId);\n        uint i = 0;\n        while (id > 0 && i < _count) {\n            result[i] = id;\n            id = groupDonators[_groupId].getNextId(id);\n            i++;\n        }\n        return result;\n    }\n\n    /**\n    * @dev Move a donator to a new position\n    * @param _groupId group id.\n    * @param _id donator id.\n    * @param _to set after this position.\n    * @return uint\n    * //revert\n    */\n    function moveDonator(uint _groupId, uint _id, uint _to)\n        external\n        returns (uint)\n    {\n        groupDonators[_groupId].move_after(_id, _to);\n        emit DonatorMovedInGroup(msg.sender, _groupId, _id, _to);\n    }\n\n    /**\n    * @dev Create an admin\n    * @param _data admin info.\n    * @param _address admin uniq code.\n    * @return uint\n    */\n    function addAdmin(\n        string calldata _data,\n        address _address\n    )\n    external\n    onlyOwner\n    returns(uint)\n    {\n        uint id = admins.add(_data);\n        adminIndexes.add(_address, id);\n\n        emit AdminAdded(msg.sender, id, _address);\n    }\n\n    /**\n    * @dev Update an admin\n    * @param _id admin id.\n    * @param _data admin info.\n    * @param _address admin uniq code.\n    * @return uint\n    */\n    function updateAdmin(\n        uint _id,\n        string calldata _data,\n        address _address\n    )\n    external\n    onlyOwner\n    returns(uint)\n    {\n        admins.update(_id, _data);\n        uint id = adminIndexes.getId(_address);\n        if (id != _id) {\n            adminIndexes.update(_address, _id);\n        }\n        emit AdminUpdated(msg.sender, _id);\n    }\n\n    /**\n    * @dev Create a admin\n    * @param _id admin id.\n    * @return uint\n    */\n    function removeAdmin(\n        uint _id\n    )\n    external\n    onlyOwner\n    returns(uint)\n    {\n        admins.remove(_id);\n        adminIndexes.remove(adminIndexes.getIndex(_id));\n\n        emit AdminDeleted(msg.sender, _id);\n    }\n\n    /**\n    * @dev Get admin.\n    * @param _id admin id.\n    * @return uint, string, string\n    * //revert\n    */\n    function getAdmin(uint _id) external view returns (\n        uint id,\n        string memory data,\n        uint version,\n        address index\n    ) {\n        (id, data, version) = admins.get(_id);\n        return (id, data, version, adminIndexes.getIndex(_id));\n    }\n\n    /**\n    * @dev Get next admin.\n    * @param _id admin id.\n    * @return uint\n    * //revert\n    */\n    function nextAdmin(uint _id) external view returns (uint) {\n        return admins.list.getNextId(_id);\n    }\n\n    /**\n    * @dev Check if admins exist.\n    * @param _ids admin ids.\n    * @return bool[]\n    * //revert\n    */\n    function areAdmins(uint[] calldata _ids) external view returns (bool[] memory) {\n        return admins.list.statuses(_ids);\n    }\n}\n",
  "sourcePath": "/work/room2read/contracts/HallOfFame.sol",
  "compiler": {
    "name": "solc",
    "version": "0.5.7+commit.6da8b019.Emscripten.clang"
  },
  "schemaVersion": "3.0.6",
  "updatedAt": "2019-04-26T13:46:28.480Z",
  "devdoc": {
    "methods": {
      "addAdmin(string,address)": {
        "details": "Create an admin",
        "params": {
          "_address": "admin uniq code.",
          "_data": "admin info."
        },
        "return": "uint"
      },
      "addDonator(string,string)": {
        "details": "Create a donator",
        "params": {
          "_data": "donator info.",
          "_externalId": "donator uniq code."
        },
        "return": "uint"
      },
      "addDonatorAndLinkGroups(string,string,uint256[])": {
        "details": "Create a donator and assign groups",
        "params": {
          "_data": "donator info.",
          "_externalId": "donator uniq code.",
          "_linkGroupIds": "group ids to link."
        },
        "return": "uint"
      },
      "addGroup(string,string)": {
        "details": "Create a group",
        "params": {
          "_code": "group uniq code.",
          "_data": "group info."
        },
        "return": "uint"
      },
      "areAdmins(uint256[])": {
        "details": "Check if admins exist.",
        "params": {
          "_ids": "admin ids."
        },
        "return": "bool[] //revert"
      },
      "areDonators(uint256[])": {
        "details": "Check if  donators exist.",
        "params": {
          "_ids": "donator ids."
        },
        "return": "bool[] //revert"
      },
      "areGroups(uint256[])": {
        "details": "Check if donators exist.",
        "params": {
          "_ids": "donator ids."
        },
        "return": "bool[] //revert"
      },
      "areInGroups(uint256,uint256[])": {
        "details": "Check if donators exist.",
        "params": {
          "_donatorId": "donator ids.",
          "_ids": "group ids."
        },
        "return": "bool[] //revert"
      },
      "getAdmin(uint256)": {
        "details": "Get admin.",
        "params": {
          "_id": "admin id."
        },
        "return": "uint, string, string //revert"
      },
      "getDonator(uint256)": {
        "details": "Get donator.",
        "params": {
          "_id": "donator id."
        },
        "return": "uint, string //revert"
      },
      "getGroup(uint256)": {
        "details": "Get group.",
        "params": {
          "_id": "group id."
        },
        "return": "uint, string, string //revert"
      },
      "getGroupDonators(uint256,uint256,uint256)": {
        "details": "Get banch of donators in group. Order dependent",
        "params": {
          "_count": "number of donators.",
          "_fromId": "donator id.",
          "_groupId": "group id."
        },
        "return": "uint //revert"
      },
      "isOwner()": {
        "return": "true if `msg.sender` is the owner of the contract."
      },
      "linkToGroups(uint256,uint256[],uint256[])": {
        "details": "Link donator to groups.",
        "params": {
          "_addIds": "group ids. //revert",
          "_donatorId": "donator ids.",
          "_removeIds": "group ids."
        }
      },
      "moveDonator(uint256,uint256,uint256)": {
        "details": "Move a donator to a new position",
        "params": {
          "_groupId": "group id.",
          "_id": "donator id.",
          "_to": "set after this position."
        },
        "return": "uint //revert"
      },
      "nextAdmin(uint256)": {
        "details": "Get next admin.",
        "params": {
          "_id": "admin id."
        },
        "return": "uint //revert"
      },
      "nextDonator(uint256)": {
        "details": "Get next donator.",
        "params": {
          "_id": "donator id."
        },
        "return": "uint //revert"
      },
      "nextGroup(uint256)": {
        "details": "Get next group.",
        "params": {
          "_id": "group id."
        },
        "return": "uint //revert"
      },
      "nextGroupDonator(uint256,uint256)": {
        "details": "Get next donator in group.",
        "params": {
          "_donatorId": "donator id.",
          "_groupId": "group id."
        },
        "return": "uint //revert"
      },
      "owner()": {
        "return": "the address of the owner."
      },
      "removeAdmin(uint256)": {
        "details": "Create a admin",
        "params": {
          "_id": "admin id."
        },
        "return": "uint"
      },
      "removeDonator(uint256)": {
        "details": "Create a donator",
        "params": {
          "_id": "donator id."
        },
        "return": "uint"
      },
      "removeGroup(uint256)": {
        "details": "Create a group",
        "params": {
          "_id": "group id."
        },
        "return": "uint"
      },
      "renounceOwnership()": {
        "details": "Allows the current owner to relinquish control of the contract."
      },
      "transferOwnership(address)": {
        "details": "Allows the current owner to transfer control of the contract to a newOwner.",
        "params": {
          "newOwner": "The address to transfer ownership to."
        }
      },
      "updateAdmin(uint256,string,address)": {
        "details": "Update an admin",
        "params": {
          "_address": "admin uniq code.",
          "_data": "admin info.",
          "_id": "admin id."
        },
        "return": "uint"
      },
      "updateDonator(uint256,string,string)": {
        "details": "Update a donator",
        "params": {
          "_data": "donator info.",
          "_externalId": "donator uniq code.",
          "_id": "donator id."
        },
        "return": "uint"
      },
      "updateDonatorAndLinkGroups(uint256,string,string,uint256[],uint256[])": {
        "details": "Update donator and assign groups",
        "params": {
          "_data": "donator info.",
          "_externalId": "donator uniq code.",
          "_linkGroupIds": "group ids to link.",
          "_unlinkGroupIds": "group ids to unlink."
        },
        "return": "uint"
      },
      "updateGroup(uint256,string,string)": {
        "details": "Update a group",
        "params": {
          "_code": "group uniq code.",
          "_data": "group info.",
          "_id": "group id."
        },
        "return": "uint"
      }
    }
  },
  "userdoc": {
    "methods": {
      "renounceOwnership()": {
        "notice": "Renouncing to ownership will leave the contract without an owner. It will not be possible to call the functions with the `onlyOwner` modifier anymore."
      }
    }
  }
}