{
  "contractName": "ListAsRingLibMock",
  "abi": [
    {
      "constant": false,
      "inputs": [
        {
          "name": "_id",
          "type": "uint256"
        }
      ],
      "name": "add",
      "outputs": [],
      "payable": false,
      "stateMutability": "nonpayable",
      "type": "function"
    },
    {
      "constant": false,
      "inputs": [
        {
          "name": "_id",
          "type": "uint256"
        },
        {
          "name": "_target",
          "type": "uint256"
        }
      ],
      "name": "add_before",
      "outputs": [],
      "payable": false,
      "stateMutability": "nonpayable",
      "type": "function"
    },
    {
      "constant": false,
      "inputs": [
        {
          "name": "_id",
          "type": "uint256"
        },
        {
          "name": "_target",
          "type": "uint256"
        }
      ],
      "name": "add_after",
      "outputs": [],
      "payable": false,
      "stateMutability": "nonpayable",
      "type": "function"
    },
    {
      "constant": false,
      "inputs": [
        {
          "name": "_id",
          "type": "uint256"
        },
        {
          "name": "_target",
          "type": "uint256"
        }
      ],
      "name": "move_before",
      "outputs": [],
      "payable": false,
      "stateMutability": "nonpayable",
      "type": "function"
    },
    {
      "constant": false,
      "inputs": [
        {
          "name": "_id",
          "type": "uint256"
        },
        {
          "name": "_target",
          "type": "uint256"
        }
      ],
      "name": "move_after",
      "outputs": [],
      "payable": false,
      "stateMutability": "nonpayable",
      "type": "function"
    },
    {
      "constant": false,
      "inputs": [
        {
          "name": "_id",
          "type": "uint256"
        }
      ],
      "name": "remove",
      "outputs": [],
      "payable": false,
      "stateMutability": "nonpayable",
      "type": "function"
    },
    {
      "constant": true,
      "inputs": [
        {
          "name": "_id",
          "type": "uint256"
        }
      ],
      "name": "getNextId",
      "outputs": [
        {
          "name": "",
          "type": "uint256"
        }
      ],
      "payable": false,
      "stateMutability": "view",
      "type": "function"
    },
    {
      "constant": true,
      "inputs": [
        {
          "name": "_id",
          "type": "uint256"
        }
      ],
      "name": "getPrevId",
      "outputs": [
        {
          "name": "",
          "type": "uint256"
        }
      ],
      "payable": false,
      "stateMutability": "view",
      "type": "function"
    },
    {
      "constant": true,
      "inputs": [],
      "name": "itemsCount",
      "outputs": [
        {
          "name": "",
          "type": "uint256"
        }
      ],
      "payable": false,
      "stateMutability": "view",
      "type": "function"
    },
    {
      "constant": true,
      "inputs": [
        {
          "name": "_id",
          "type": "uint256"
        }
      ],
      "name": "exists",
      "outputs": [
        {
          "name": "",
          "type": "bool"
        }
      ],
      "payable": false,
      "stateMutability": "view",
      "type": "function"
    },
    {
      "constant": true,
      "inputs": [
        {
          "name": "_ids",
          "type": "uint256[]"
        }
      ],
      "name": "statuses",
      "outputs": [
        {
          "name": "",
          "type": "bool[]"
        }
      ],
      "payable": false,
      "stateMutability": "view",
      "type": "function"
    }
  ],
  "bytecode": "0x608060405234801561001057600080fd5b50610f1a806100206000396000f3fe608060405234801561001057600080fd5b50600436106100a95760003560e01c80634f4c6ca8116100715780634f4c6ca8146101fc5780634f558e791461021f578063a2b3825414610250578063cb93cb901461026d578063e2c03ace14610290578063f061ca6b14610298576100a9565b80631003e2d2146100ae5780631183a8c0146100cd5780632a469f41146100fc5780634269326e1461011f5780634cc82215146101df575b600080fd5b6100cb600480360360208110156100c457600080fd5b50356102bb565b005b6100ea600480360360208110156100e357600080fd5b50356102cf565b60408051918252519081900360200190f35b6100cb6004803603604081101561011257600080fd5b50803590602001356102e7565b61018f6004803603602081101561013557600080fd5b81019060208101813564010000000081111561015057600080fd5b82018360208201111561016257600080fd5b8035906020019184602083028401116401000000008311171561018457600080fd5b5090925090506102fd565b60408051602080825283518183015283519192839290830191858101910280838360005b838110156101cb5781810151838201526020016101b3565b505050509050019250505060405180910390f35b6100cb600480360360208110156101f557600080fd5b5035610349565b6100cb6004803603604081101561021257600080fd5b508035906020013561035a565b61023c6004803603602081101561023557600080fd5b503561036c565b604080519115158252519081900360200190f35b6100ea6004803603602081101561026657600080fd5b503561037e565b6100cb6004803603604081101561028357600080fd5b5080359060200135610390565b6100ea6103a2565b6100cb600480360360408110156102ae57600080fd5b50803590602001356103b3565b6102cc60008263ffffffff6103c516565b50565b60006102e1818363ffffffff61047516565b92915050565b6102f96000838363ffffffff6104f316565b5050565b606061034283838080602002602001604051908101604052809392919081815260200183836020028082843760009201829052509392505063ffffffff6106c5169050565b9392505050565b6102cc60008263ffffffff6107a816565b6102f96000838363ffffffff61090016565b60006102e1818363ffffffff610a8416565b60006102e1818363ffffffff610ab116565b6102f96000838363ffffffff610b1616565b60006103ae6000610c82565b905090565b6102f96000838363ffffffff610c8916565b806000811161040c5760408051600160e51b62461bcd0281526020600482015260136024820152600080516020610e6c833981519152604482015290519081900360640190fd5b82826104188282610a84565b15801561042457508015155b61046257604051600160e51b62461bcd028152600401808060200182810382526021815260200180610ece6021913960400191505060405180910390fd5b61046e85856000610900565b5050505050565b600082826104838282610a84565b8061048c575080155b6104ce5760408051600160e51b62461bcd02815260206004820152601d6024820152600080516020610eae833981519152604482015290519081900360640190fd5b8460006104da86610d93565b8152602001908152602001600020549250505092915050565b816000811161053a5760408051600160e51b62461bcd0281526020600482015260136024820152600080516020610e6c833981519152604482015290519081900360640190fd5b83836105468282610a84565b15801561055257508015155b61059057604051600160e51b62461bcd028152600401808060200182810382526021815260200180610ece6021913960400191505060405180910390fd5b858461059c8282610a84565b806105a5575080155b6105e75760408051600160e51b62461bcd02815260206004820152601d6024820152600080516020610eae833981519152604482015290519081900360640190fd5b60006105f287610d93565b600081815260208b9052604081205491925089908b9061061184610dce565b815260200190815260200160002081905550808a60000160006106338c610d93565b815260200190815260200160002081905550888a60000160006106558c610e09565b815260200190815260200160002081905550878a60000160006106778c610dce565b81526020808201929092526040908101600090812093909355848352908c905290208990556001808b01546106b19163ffffffff610e4416565b8a6001018190555050505050505050505050565b80516060906032811061070c57604051600160e51b62461bcd028152600401808060200182810382526022815260200180610e8c6022913960400191505060405180910390fd5b606081604051908082528060200260200182016040528015610738578160200160208202803883390190505b50905060005b8281101561079f5785600001600061076887848151811061075b57fe5b6020026020010151610e09565b8152602001908152602001600020546000141582828151811061078757fe5b9115156020928302919091019091015260010161073e565b50949350505050565b80600081116107ef5760408051600160e51b62461bcd0281526020600482015260136024820152600080516020610e6c833981519152604482015290519081900360640190fd5b82826107fb8282610a84565b80610804575080155b6108465760408051600160e51b62461bcd02815260206004820152601d6024820152600080516020610eae833981519152604482015290519081900360640190fd5b600061085185610dce565b9050600061085e86610d93565b9050600061086b87610e09565b600084815260208a905260408082205485835290822054929350919081908b9061089485610d93565b815260200190815260200160002081905550818a60000160006108b684610dce565b81526020808201929092526040908101600090812093909355878352908c90528082208290558582528082208290558482528120556001808b01546106b19163ffffffff610e5616565b81600081116109475760408051600160e51b62461bcd0281526020600482015260136024820152600080516020610e6c833981519152604482015290519081900360640190fd5b83836109538282610a84565b15801561095f57508015155b61099d57604051600160e51b62461bcd028152600401808060200182810382526021815260200180610ece6021913960400191505060405180910390fd5b85846109a98282610a84565b806109b2575080155b6109f45760408051600160e51b62461bcd02815260206004820152601d6024820152600080516020610eae833981519152604482015290519081900360640190fd5b60006109ff87610dce565b600081815260208b9052604081205491925089908b90610a1e84610d93565b815260200190815260200160002081905550878a6000016000610a408c610d93565b815260200190815260200160002081905550808a6000016000610a628c610dce565b815260200190815260200160002081905550888a60000160006106778c610e09565b6000818382610a9283610e09565b8152602001908152602001600020541480156103425750501515919050565b60008282610abf8282610a84565b80610ac8575080155b610b0a5760408051600160e51b62461bcd02815260206004820152601d6024820152600080516020610eae833981519152604482015290519081900360640190fd5b8460006104da86610dce565b8160008111610b5d5760408051600160e51b62461bcd0281526020600482015260136024820152600080516020610e6c833981519152604482015290519081900360640190fd5b8383610b698282610a84565b80610b72575080155b610bb45760408051600160e51b62461bcd02815260206004820152601d6024820152600080516020610eae833981519152604482015290519081900360640190fd5b8584610bc08282610a84565b80610bc9575080155b610c0b5760408051600160e51b62461bcd02815260206004820152601d6024820152600080516020610eae833981519152604482015290519081900360640190fd5b85871415610c635760408051600160e51b62461bcd02815260206004820152601860248201527f69642063616e277420626520657175616c207461726765740000000000000000604482015290519081900360640190fd5b610c6d88886107a8565b610c788888886104f3565b5050505050505050565b6001015490565b8160008111610cd05760408051600160e51b62461bcd0281526020600482015260136024820152600080516020610e6c833981519152604482015290519081900360640190fd5b8383610cdc8282610a84565b80610ce5575080155b610d275760408051600160e51b62461bcd02815260206004820152601d6024820152600080516020610eae833981519152604482015290519081900360640190fd5b8584610d338282610a84565b80610d3c575080155b610d7e5760408051600160e51b62461bcd02815260206004820152601d6024820152600080516020610eae833981519152604482015290519081900360640190fd5b610d8888886107a8565b610c78888888610900565b60408051600160e21b631b995e1d02602080830191909152602480830194909452825180830390940184526044909101909152815191012090565b60408051600160e11b63383932bb02602080830191909152602480830194909452825180830390940184526044909101909152815191012090565b60408051600160e11b6331bab93902602080830191909152602480830194909452825180830390940184526044909101909152815191012090565b60008282018381101561034257600080fd5b600082821115610e6557600080fd5b5090039056fe5a65726f20696420697320666f72626964656e000000000000000000000000005374617475732061727261792063616e2774206265206d6f7265207468616e203530746869732069642073686f756c642065786973747320696e206c697374000000746869732069642073686f756c64204e4f542065786973747320696e206c697374a165627a7a72305820a133ce2290ff5ece3222f7114d267605249a36fddc5d6f52b3302c1c1d2686d50029",
  "source": "pragma solidity 0.5;\n\nimport \"../ListAsRingLib.sol\";\n\n/**\n * @title ListMock\n * @author Ihor Borysyuk Igor Dulger\n * @dev Mock contract to test List library. All docs are into origin library.\n */\ncontract ListAsRingLibMock {\n\n    using ListAsRingLib for ListAsRingLib.ListData;\n\n    ListAsRingLib.ListData private list;\n\n    function add(uint _id) external {\n        list.add(_id);\n    }\n\n    function add_before(uint _id, uint _target) external {\n        list.add_before(_id, _target);\n    }\n\n    function add_after(uint _id, uint _target) external {\n        list.add_after(_id, _target);\n    }\n\n    function move_before(uint _id, uint _target) external {\n        list.move_before(_id, _target);\n    }\n\n    function move_after(uint _id, uint _target) external {\n        list.move_after(_id, _target);\n    }\n\n    function remove(uint _id) external {\n        list.remove(_id);\n    }\n\n    function getNextId(uint _id) external view returns (uint) {\n        return list.getNextId(_id);\n    }\n\n    function getPrevId(uint _id) external view returns (uint) {\n        return list.getPrevId(_id);\n    }\n\n    function itemsCount() external view returns (uint) {\n        return list.itemsCount();\n    }\n\n    function exists(uint _id) external view returns (bool) {\n        return list.exists(_id);\n    }\n\n    function statuses(uint[] calldata _ids) external view returns (bool[] memory) {\n        return list.statuses(_ids);\n    }\n}\n",
  "sourcePath": "/work/room2read/contracts/libs/mocks/ListAsRingMock.sol",
  "compiler": {
    "name": "solc",
    "version": "0.5.7+commit.6da8b019.Emscripten.clang"
  },
  "schemaVersion": "3.0.6",
  "updatedAt": "2019-04-24T11:41:08.839Z",
  "devdoc": {
    "author": "Ihor Borysyuk Igor Dulger",
    "details": "Mock contract to test List library. All docs are into origin library.",
    "methods": {},
    "title": "ListMock"
  },
  "userdoc": {
    "methods": {}
  }
}