{
  "contractName": "StringIndexLibMock",
  "abi": [
    {
      "constant": false,
      "inputs": [
        {
          "name": "_index",
          "type": "string"
        },
        {
          "name": "_id",
          "type": "uint256"
        }
      ],
      "name": "add",
      "outputs": [],
      "payable": false,
      "stateMutability": "nonpayable",
      "type": "function"
    },
    {
      "constant": false,
      "inputs": [
        {
          "name": "_index",
          "type": "string"
        },
        {
          "name": "_id",
          "type": "uint256"
        }
      ],
      "name": "update",
      "outputs": [],
      "payable": false,
      "stateMutability": "nonpayable",
      "type": "function"
    },
    {
      "constant": false,
      "inputs": [
        {
          "name": "_index",
          "type": "string"
        }
      ],
      "name": "remove",
      "outputs": [],
      "payable": false,
      "stateMutability": "nonpayable",
      "type": "function"
    },
    {
      "constant": true,
      "inputs": [
        {
          "name": "_index",
          "type": "string"
        }
      ],
      "name": "getId",
      "outputs": [
        {
          "name": "",
          "type": "uint256"
        }
      ],
      "payable": false,
      "stateMutability": "view",
      "type": "function"
    },
    {
      "constant": true,
      "inputs": [
        {
          "name": "_id",
          "type": "uint256"
        }
      ],
      "name": "getIndex",
      "outputs": [
        {
          "name": "",
          "type": "string"
        }
      ],
      "payable": false,
      "stateMutability": "view",
      "type": "function"
    }
  ],
  "bytecode": "0x608060405234801561001057600080fd5b50610bc1806100206000396000f3fe608060405234801561001057600080fd5b50600436106100575760003560e01c806336555b851461005c5780634ee5c2ee146100cc57806380599e4b1461013a5780638e7cb6e1146101a8578063bee51f3b1461023a575b600080fd5b6100ca6004803603604081101561007257600080fd5b810190602081018135600160201b81111561008c57600080fd5b82018360208201111561009e57600080fd5b803590602001918460018302840111600160201b831117156100bf57600080fd5b9193509150356102ba565b005b6100ca600480360360408110156100e257600080fd5b810190602081018135600160201b8111156100fc57600080fd5b82018360208201111561010e57600080fd5b803590602001918460018302840111600160201b8311171561012f57600080fd5b919350915035610306565b6100ca6004803603602081101561015057600080fd5b810190602081018135600160201b81111561016a57600080fd5b82018360208201111561017c57600080fd5b803590602001918460018302840111600160201b8311171561019d57600080fd5b50909250905061034d565b6101c5600480360360208110156101be57600080fd5b5035610397565b6040805160208082528351818301528351919283929083019185019080838360005b838110156101ff5781810151838201526020016101e7565b50505050905090810190601f16801561022c5780820380516001836020036101000a031916815260200191505b509250505060405180910390f35b6102a86004803603602081101561025057600080fd5b810190602081018135600160201b81111561026a57600080fd5b82018360208201111561027c57600080fd5b803590602001918460018302840111600160201b8311171561029d57600080fd5b5090925090506103b0565b60408051918252519081900360200190f35b61030183838080601f01602080910402602001604051908101604052809392919081815260200183838082843760009201829052509392508591505063ffffffff6103ff16565b505050565b61030183838080601f01602080910402602001604051908101604052809392919081815260200183838082843760009201829052509392508591505063ffffffff6106ad16565b61039382828080601f01602080910402602001604051908101604052809392919081815260200183838082843760009201829052509392505063ffffffff6108bf169050565b5050565b60606103aa60008363ffffffff6109a416565b92915050565b60006103f883838080601f01602080910402602001604051908101604052809392919081815260200183838082843760009201829052509392505063ffffffff610a48169050565b9392505050565b8151829081906104595760408051600160e51b62461bcd02815260206004820152601460248201527f696e6465782063616e277420626520656d707479000000000000000000000000604482015290519081900360640190fd5b82806104af5760408051600160e51b62461bcd02815260206004820152601160248201527f69642063616e277420626520656d707479000000000000000000000000000000604482015290519081900360640190fd5b85856104bb8282610a48565b156105105760408051600160e51b62461bcd02815260206004820152601a60248201527f5468697320696e64657820697320616c72656164792075736564000000000000604482015290519081900360640190fd5b878660608260010160008381526020019081526020016000208054600181600116156101000203166002900480601f0160208091040260200160405190810160405280929190818152602001828054600181600116156101000203166002900480156105bd5780601f10610592576101008083540402835291602001916105bd565b820191906000526020600020905b8154815290600101906020018083116105a057829003601f168201915b50505050509050805160001461061d5760408051600160e51b62461bcd02815260206004820152601760248201527f5468697320696420697320616c72656164792075736564000000000000000000604482015290519081900360640190fd5b888b6000018b6040518082805190602001908083835b602083106106525780518252601f199092019160209182019101610633565b51815160209384036101000a60001901801990921691161790529201948552506040805194859003820190942094909455505060008b815260018e018352208b5161069f928d0190610ab3565b505050505050505050505050565b8151829081906107075760408051600160e51b62461bcd02815260206004820152601460248201527f696e6465782063616e277420626520656d707479000000000000000000000000604482015290519081900360640190fd5b84846107138282610a48565b156107685760408051600160e51b62461bcd02815260206004820152601a60248201527f5468697320696e64657820697320616c72656164792075736564000000000000604482015290519081900360640190fd5b606061077488876109a4565b805190915081906107cf5760408051600160e51b62461bcd02815260206004820152600e60248201527f4964206d75737420657869737473000000000000000000000000000000000000604482015290519081900360640190fd5b88600001826040518082805190602001908083835b602083106108035780518252601f1990920191602091820191016107e4565b51815160209384036101000a60001901801990921691161790529201948552506040519384900381018420600090558b518b948e94508d9350918291908401908083835b602083106108665780518252601f199092019160209182019101610847565b51815160209384036101000a600019018019909216911617905292019485525060408051948590038201909420949094555050600089815260018c0183522089516108b3928b0190610ab3565b50505050505050505050565b60006108cb8383610a48565b9050806109225760408051600160e51b62461bcd02815260206004820152601160248201527f496e646578206d75737420657869737473000000000000000000000000000000604482015290519081900360640190fd5b82600001826040518082805190602001908083835b602083106109565780518252601f199092019160209182019101610937565b51815160209384036101000a60001901801990921691161790529201948552506040805194859003820190942060009081905585815260018801909152928320610301939092509050610b31565b60008181526001838101602090815260409283902080548451600294821615610100026000190190911693909304601f81018390048302840183019094528383526060939091830182828015610a3b5780601f10610a1057610100808354040283529160200191610a3b565b820191906000526020600020905b815481529060010190602001808311610a1e57829003601f168201915b5050505050905092915050565b600082600001826040518082805190602001908083835b60208310610a7e5780518252601f199092019160209182019101610a5f565b51815160209384036101000a600019018019909216911617905292019485525060405193849003019092205495945050505050565b828054600181600116156101000203166002900490600052602060002090601f016020900481019282601f10610af457805160ff1916838001178555610b21565b82800160010185558215610b21579182015b82811115610b21578251825591602001919060010190610b06565b50610b2d929150610b78565b5090565b50805460018160011615610100020316600290046000825580601f10610b575750610b75565b601f016020900490600052602060002090810190610b759190610b78565b50565b610b9291905b80821115610b2d5760008155600101610b7e565b9056fea165627a7a7230582044e9a7dec3f267c3ca906db76ff4688ec01e64adda0d6165211fdac6efa5ae600029",
  "source": "pragma solidity 0.5;\n\nimport \"../StringIndexLib.sol\";\n\n/**\n * @title StringIndexLibMock\n * @author Igor Dulger\n * @dev Mock contract to test string index library. All docs are into origin library.\n */\ncontract StringIndexLibMock {\n\n    using StringIndexLib for StringIndexLib.Indexes;\n\n    StringIndexLib.Indexes private indexes;\n\n    function add(string calldata _index, uint _id) external {\n        indexes.add(_index, _id);\n    }\n\n    function update(string calldata _index, uint _id) external {\n        indexes.update(_index, _id);\n    }\n\n    function remove(string calldata _index) external {\n        indexes.remove(_index);\n    }\n\n    function getId(string calldata _index) external view returns (uint) {\n        return indexes.getId(_index);\n    }\n\n    function getIndex(uint _id) external view returns (string memory) {\n        return indexes.getIndex(_id);\n    }\n}\n",
  "sourcePath": "/work/room2read/contracts/libs/mocks/StringIndexMock.sol",
  "compiler": {
    "name": "solc",
    "version": "0.5.7+commit.6da8b019.Emscripten.clang"
  },
  "schemaVersion": "3.0.6",
  "updatedAt": "2019-04-24T11:41:08.829Z",
  "devdoc": {
    "author": "Igor Dulger",
    "details": "Mock contract to test string index library. All docs are into origin library.",
    "methods": {},
    "title": "StringIndexLibMock"
  },
  "userdoc": {
    "methods": {}
  }
}