{
  "contractName": "UintEnumerationLibMock",
  "abi": [
    {
      "anonymous": false,
      "inputs": [
        {
          "indexed": false,
          "name": "text",
          "type": "string"
        },
        {
          "indexed": false,
          "name": "id",
          "type": "uint256"
        }
      ],
      "name": "Debug",
      "type": "event"
    },
    {
      "constant": false,
      "inputs": [
        {
          "name": "_id",
          "type": "uint256"
        }
      ],
      "name": "add",
      "outputs": [],
      "payable": false,
      "stateMutability": "nonpayable",
      "type": "function"
    },
    {
      "constant": false,
      "inputs": [
        {
          "name": "_id",
          "type": "uint256"
        }
      ],
      "name": "remove",
      "outputs": [],
      "payable": false,
      "stateMutability": "nonpayable",
      "type": "function"
    },
    {
      "constant": true,
      "inputs": [
        {
          "name": "_id",
          "type": "uint256"
        }
      ],
      "name": "getNextId",
      "outputs": [
        {
          "name": "",
          "type": "uint256"
        }
      ],
      "payable": false,
      "stateMutability": "view",
      "type": "function"
    },
    {
      "constant": true,
      "inputs": [],
      "name": "itemsCount",
      "outputs": [
        {
          "name": "",
          "type": "uint256"
        }
      ],
      "payable": false,
      "stateMutability": "view",
      "type": "function"
    },
    {
      "constant": true,
      "inputs": [
        {
          "name": "_id",
          "type": "uint256"
        }
      ],
      "name": "exists",
      "outputs": [
        {
          "name": "",
          "type": "bool"
        }
      ],
      "payable": false,
      "stateMutability": "view",
      "type": "function"
    },
    {
      "constant": true,
      "inputs": [
        {
          "name": "_ids",
          "type": "uint256[]"
        }
      ],
      "name": "statuses",
      "outputs": [
        {
          "name": "",
          "type": "bool[]"
        }
      ],
      "payable": false,
      "stateMutability": "view",
      "type": "function"
    }
  ],
  "bytecode": "0x608060405234801561001057600080fd5b506107c0806100206000396000f3fe608060405234801561001057600080fd5b50600436106100625760003560e01c80631003e2d2146100675780631183a8c0146100865780634269326e146100b55780634cc82215146101755780634f558e7914610192578063e2c03ace146101c3575b600080fd5b6100846004803603602081101561007d57600080fd5b50356101cb565b005b6100a36004803603602081101561009c57600080fd5b50356101df565b60408051918252519081900360200190f35b610125600480360360208110156100cb57600080fd5b8101906020810181356401000000008111156100e657600080fd5b8201836020820111156100f857600080fd5b8035906020019184602083028401116401000000008311171561011a57600080fd5b5090925090506101f7565b60408051602080825283518183015283519192839290830191858101910280838360005b83811015610161578181015183820152602001610149565b505050509050019250505060405180910390f35b6100846004803603602081101561018b57600080fd5b5035610243565b6101af600480360360208110156101a857600080fd5b5035610254565b604080519115158252519081900360200190f35b6100a3610266565b6101dc60008263ffffffff61027816565b50565b60006101f1818363ffffffff61035316565b92915050565b606061023c83838080602002602001604051908101604052809392919081815260200183836020028082843760009201829052509392505063ffffffff610453169050565b9392505050565b6101dc60008263ffffffff61051d16565b60006101f1818363ffffffff61068916565b600061027260006106dc565b90505b90565b80600081116102d15760408051600160e51b62461bcd02815260206004820152601460248201527f5a65726f20696420697320666f7262696464656e000000000000000000000000604482015290519081900360640190fd5b82826102dd8282610689565b1580156102e957508015155b61032757604051600160e51b62461bcd0281526004018080602001828103825260218152602001806107746021913960400191505060405180910390fd5b505050600180830180546000848152602095865260408120829055928101825590825292902090910155565b600082826103618282610689565b8061036a575080155b6103be5760408051600160e51b62461bcd02815260206004820152601d60248201527f746869732069642073686f756c642065786973747320696e206c697374000000604482015290519081900360640190fd5b60008481526020869052604090205460018601546103e382600263ffffffff6106e316565b11156103f357600093505061044b565b841561042b57856001016104116001836106e390919063ffffffff16565b8154811061041b57fe5b9060005260206000200154610447565b8560010160008154811061043b57fe5b90600052602060002001545b9350505b505092915050565b6060603282511061049857604051600160e51b62461bcd0281526004018080602001828103825260228152602001806107526022913960400191505060405180910390fd5b606082516040519080825280602002602001820160405280156104c5578160200160208202803883390190505b50905060005b8351811015610515576104f1858583815181106104e457fe5b6020026020010151610689565b8282815181106104fd57fe5b911515602092830291909101909101526001016104cb565b509392505050565b80600081116105765760408051600160e51b62461bcd02815260206004820152601460248201527f5a65726f20696420697320666f7262696464656e000000000000000000000000604482015290519081900360640190fd5b82826105828282610689565b8061058b575080155b6105df5760408051600160e51b62461bcd02815260206004820152601d60248201527f746869732069642073686f756c642065786973747320696e206c697374000000604482015290519081900360640190fd5b60018501546000858152602087905260409020546000199091019080821461064e57600087600101838154811061061257fe5b906000526020600020015490508088600101838154811061062f57fe5b6000918252602080832090910192909255918252889052604090208190555b6000868152602088905260408120556001808801546106729163ffffffff6106f516565b61067f600189018261070a565b5050505050505050565b6001820154600090156106d45760008281526020849052604090205460018401805484929081106106b657fe5b90600052602060002001541480156106cd57508115155b90506101f1565b5060006101f1565b6001015490565b60008282018381101561023c57600080fd5b60008282111561070457600080fd5b50900390565b81548183558181111561072e5760008381526020902061072e918101908301610733565b505050565b61027591905b8082111561074d5760008155600101610739565b509056fe5374617475732061727261792063616e2774206265206d6f7265207468616e203530746869732069642073686f756c64204e4f542065786973747320696e206c697374a165627a7a72305820c0ffeb94826c22a17009e3904bcf08033bd24eee07ee19c1c8b79d2670fb8a650029",
  "source": "pragma solidity 0.5;\n\nimport \"../UintEnumerationLib.sol\";\n\n/**\n * @title ListMock\n * @author Ihor Borysyuk Igor Dulger\n * @dev Mock contract to test List library. All docs are into origin library.\n */\ncontract UintEnumerationLibMock {\n\n    using UintEnumerationLib for UintEnumerationLib.ListData;\n\n    UintEnumerationLib.ListData private list;\n\n    event Debug(string text, uint id);\n\n    function add(uint _id) external {\n        list.add(_id);\n    }\n\n    function remove(uint _id) external {\n        list.remove(_id);\n    }\n\n    function getNextId(uint _id) external\n        view\n        returns (uint) {\n        return list.getNextId(_id);\n    }\n\n    function itemsCount() external view returns (uint) {\n        return list.itemsCount();\n    }\n\n    function exists(uint _id) external view returns (bool) {\n        return list.exists(_id);\n    }\n\n    function statuses(uint[] calldata _ids) external view returns (bool[] memory) {\n        return list.statuses(_ids);\n    }\n}\n",
  "sourcePath": "/work/room2read/contracts/libs/mocks/UintEnumerationMock.sol",
  "compiler": {
    "name": "solc",
    "version": "0.5.7+commit.6da8b019.Emscripten.clang"
  },
  "schemaVersion": "3.0.6",
  "updatedAt": "2019-04-24T11:41:08.830Z",
  "devdoc": {
    "author": "Ihor Borysyuk Igor Dulger",
    "details": "Mock contract to test List library. All docs are into origin library.",
    "methods": {},
    "title": "ListMock"
  },
  "userdoc": {
    "methods": {}
  }
}